{
	"FundMe.sol": {
		"FundMe": {
			"abi": [
				{
					"inputs": [
						{
							"internalType": "address",
							"name": "_chainAddress",
							"type": "address"
						}
					],
					"stateMutability": "nonpayable",
					"type": "constructor"
				},
				{
					"inputs": [
						{
							"internalType": "address",
							"name": "",
							"type": "address"
						}
					],
					"name": "amountFunded",
					"outputs": [
						{
							"internalType": "uint256",
							"name": "",
							"type": "uint256"
						}
					],
					"stateMutability": "view",
					"type": "function"
				},
				{
					"inputs": [],
					"name": "fund",
					"outputs": [],
					"stateMutability": "payable",
					"type": "function"
				},
				{
					"inputs": [
						{
							"internalType": "uint256",
							"name": "",
							"type": "uint256"
						}
					],
					"name": "funders",
					"outputs": [
						{
							"internalType": "address",
							"name": "",
							"type": "address"
						}
					],
					"stateMutability": "view",
					"type": "function"
				},
				{
					"inputs": [
						{
							"internalType": "uint256",
							"name": "_ethAmount",
							"type": "uint256"
						}
					],
					"name": "getConversion",
					"outputs": [
						{
							"internalType": "uint256",
							"name": "",
							"type": "uint256"
						}
					],
					"stateMutability": "view",
					"type": "function"
				},
				{
					"inputs": [],
					"name": "getPrice",
					"outputs": [
						{
							"internalType": "int256",
							"name": "",
							"type": "int256"
						}
					],
					"stateMutability": "view",
					"type": "function"
				},
				{
					"inputs": [],
					"name": "priceFeed",
					"outputs": [
						{
							"internalType": "contract AggregatorV3Interface",
							"name": "",
							"type": "address"
						}
					],
					"stateMutability": "view",
					"type": "function"
				},
				{
					"inputs": [],
					"name": "withdraw",
					"outputs": [],
					"stateMutability": "nonpayable",
					"type": "function"
				}
			],
			"devdoc": {
				"kind": "dev",
				"methods": {},
				"version": 1
			},
			"evm": {
				"assembly": "    /* \"FundMe.sol\":176:1662  contract FundMe {... */\n  mstore(0x40, 0xc0)\n    /* \"FundMe.sol\":332:521  constructor(address _chainAddress) {// address  get this from chainlink  that's what am passing... */\n  callvalue\n  dup1\n  iszero\n  tag_1\n  jumpi\n  revert(0x00, 0x00)\ntag_1:\n  pop\n  mload(0x40)\n  sub(codesize, bytecodeSize)\n  dup1\n  bytecodeSize\n  dup4\n  codecopy\n  dup2\n  dup2\n  add\n  0x40\n  mstore\n  dup2\n  add\n  swap1\n  tag_2\n  swap2\n  swap1\n  tag_3\n  jump\t// in\ntag_2:\n    /* \"FundMe.sol\":445:455  msg.sender */\n  caller\n    /* \"FundMe.sol\":437:455  owner = msg.sender */\n  0xffffffffffffffffffffffffffffffffffffffff\n  and\n  0xa0\n  dup2\n  0xffffffffffffffffffffffffffffffffffffffff\n  and\n  dup2\n  mstore\n  pop\n  pop\n    /* \"FundMe.sol\":499:512  _chainAddress */\n  dup1\n    /* \"FundMe.sol\":466:513  priceFeed= AggregatorV3Interface(_chainAddress) */\n  0xffffffffffffffffffffffffffffffffffffffff\n  and\n  0x80\n  dup2\n  0xffffffffffffffffffffffffffffffffffffffff\n  and\n  dup2\n  mstore\n  pop\n  pop\n    /* \"FundMe.sol\":332:521  constructor(address _chainAddress) {// address  get this from chainlink  that's what am passing... */\n  pop\n    /* \"FundMe.sol\":176:1662  contract FundMe {... */\n  jump(tag_6)\n    /* \"#utility.yul\":88:205   */\ntag_8:\n    /* \"#utility.yul\":197:198   */\n  0x00\n    /* \"#utility.yul\":194:195   */\n  0x00\n    /* \"#utility.yul\":187:199   */\n  revert\n    /* \"#utility.yul\":334:460   */\ntag_10:\n    /* \"#utility.yul\":371:378   */\n  0x00\n    /* \"#utility.yul\":411:453   */\n  0xffffffffffffffffffffffffffffffffffffffff\n    /* \"#utility.yul\":404:409   */\n  dup3\n    /* \"#utility.yul\":400:454   */\n  and\n    /* \"#utility.yul\":389:454   */\n  swap1\n  pop\n    /* \"#utility.yul\":334:460   */\n  swap2\n  swap1\n  pop\n  jump\t// out\n    /* \"#utility.yul\":466:562   */\ntag_11:\n    /* \"#utility.yul\":503:510   */\n  0x00\n    /* \"#utility.yul\":532:556   */\n  tag_20\n    /* \"#utility.yul\":550:555   */\n  dup3\n    /* \"#utility.yul\":532:556   */\n  tag_10\n  jump\t// in\ntag_20:\n    /* \"#utility.yul\":521:556   */\n  swap1\n  pop\n    /* \"#utility.yul\":466:562   */\n  swap2\n  swap1\n  pop\n  jump\t// out\n    /* \"#utility.yul\":568:690   */\ntag_12:\n    /* \"#utility.yul\":641:665   */\n  tag_22\n    /* \"#utility.yul\":659:664   */\n  dup2\n    /* \"#utility.yul\":641:665   */\n  tag_11\n  jump\t// in\ntag_22:\n    /* \"#utility.yul\":634:639   */\n  dup2\n    /* \"#utility.yul\":631:666   */\n  eq\n    /* \"#utility.yul\":621:684   */\n  tag_23\n  jumpi\n    /* \"#utility.yul\":680:681   */\n  0x00\n    /* \"#utility.yul\":677:678   */\n  0x00\n    /* \"#utility.yul\":670:682   */\n  revert\n    /* \"#utility.yul\":621:684   */\ntag_23:\n    /* \"#utility.yul\":568:690   */\n  pop\n  jump\t// out\n    /* \"#utility.yul\":696:839   */\ntag_13:\n    /* \"#utility.yul\":753:758   */\n  0x00\n    /* \"#utility.yul\":784:790   */\n  dup2\n    /* \"#utility.yul\":778:791   */\n  mload\n    /* \"#utility.yul\":769:791   */\n  swap1\n  pop\n    /* \"#utility.yul\":800:833   */\n  tag_25\n    /* \"#utility.yul\":827:832   */\n  dup2\n    /* \"#utility.yul\":800:833   */\n  tag_12\n  jump\t// in\ntag_25:\n    /* \"#utility.yul\":696:839   */\n  swap3\n  swap2\n  pop\n  pop\n  jump\t// out\n    /* \"#utility.yul\":845:1196   */\ntag_3:\n    /* \"#utility.yul\":915:921   */\n  0x00\n    /* \"#utility.yul\":964:966   */\n  0x20\n    /* \"#utility.yul\":952:961   */\n  dup3\n    /* \"#utility.yul\":943:950   */\n  dup5\n    /* \"#utility.yul\":939:962   */\n  sub\n    /* \"#utility.yul\":935:967   */\n  slt\n    /* \"#utility.yul\":932:1051   */\n  iszero\n  tag_27\n  jumpi\n    /* \"#utility.yul\":970:1049   */\n  tag_28\n  tag_8\n  jump\t// in\ntag_28:\n    /* \"#utility.yul\":932:1051   */\ntag_27:\n    /* \"#utility.yul\":1090:1091   */\n  0x00\n    /* \"#utility.yul\":1115:1179   */\n  tag_29\n    /* \"#utility.yul\":1171:1178   */\n  dup5\n    /* \"#utility.yul\":1162:1168   */\n  dup3\n    /* \"#utility.yul\":1151:1160   */\n  dup6\n    /* \"#utility.yul\":1147:1169   */\n  add\n    /* \"#utility.yul\":1115:1179   */\n  tag_13\n  jump\t// in\ntag_29:\n    /* \"#utility.yul\":1105:1179   */\n  swap2\n  pop\n    /* \"#utility.yul\":1061:1189   */\n  pop\n    /* \"#utility.yul\":845:1196   */\n  swap3\n  swap2\n  pop\n  pop\n  jump\t// out\n    /* \"FundMe.sol\":176:1662  contract FundMe {... */\ntag_6:\n  mload(0x80)\n  mload(0xa0)\n  codecopy(0x00, dataOffset(sub_0), dataSize(sub_0))\n  0x00\n  assignImmutable(\"0xe921da22f871c25c63f06c1365385cbb26397f64f79055cdbab32187a9377d16\")\n  0x00\n  assignImmutable(\"0x6590fa52fa76f967656340b874bc9ca09733c2fddea9886210ebcbbceee04b35\")\n  return(0x00, dataSize(sub_0))\nstop\n\nsub_0: assembly {\n        /* \"FundMe.sol\":176:1662  contract FundMe {... */\n      mstore(0x40, 0x80)\n      jumpi(tag_1, lt(calldatasize, 0x04))\n      shr(0xe0, calldataload(0x00))\n      dup1\n      0x98d5fdca\n      gt\n      tag_9\n      jumpi\n      dup1\n      0x98d5fdca\n      eq\n      tag_5\n      jumpi\n      dup1\n      0xb60d4288\n      eq\n      tag_6\n      jumpi\n      dup1\n      0xdc0d3dff\n      eq\n      tag_7\n      jumpi\n      dup1\n      0xdeaf2cf0\n      eq\n      tag_8\n      jumpi\n      jump(tag_1)\n    tag_9:\n      dup1\n      0x047abed7\n      eq\n      tag_2\n      jumpi\n      dup1\n      0x3ccfd60b\n      eq\n      tag_3\n      jumpi\n      dup1\n      0x741bef1a\n      eq\n      tag_4\n      jumpi\n    tag_1:\n      revert(0x00, 0x00)\n        /* \"FundMe.sol\":1221:1484  function getConversion (uint256 _ethAmount)  view public returns (uint256) {... */\n    tag_2:\n      callvalue\n      dup1\n      iszero\n      tag_10\n      jumpi\n      revert(0x00, 0x00)\n    tag_10:\n      pop\n      tag_11\n      0x04\n      dup1\n      calldatasize\n      sub\n      dup2\n      add\n      swap1\n      tag_12\n      swap2\n      swap1\n      tag_13\n      jump\t// in\n    tag_12:\n      tag_14\n      jump\t// in\n    tag_11:\n      mload(0x40)\n      tag_15\n      swap2\n      swap1\n      tag_16\n      jump\t// in\n    tag_15:\n      mload(0x40)\n      dup1\n      swap2\n      sub\n      swap1\n      return\n        /* \"FundMe.sol\":1494:1659  function withdraw () public {... */\n    tag_3:\n      callvalue\n      dup1\n      iszero\n      tag_17\n      jumpi\n      revert(0x00, 0x00)\n    tag_17:\n      pop\n      tag_18\n      tag_19\n      jump\t// in\n    tag_18:\n      stop\n        /* \"FundMe.sol\":241:289  AggregatorV3Interface public immutable priceFeed */\n    tag_4:\n      callvalue\n      dup1\n      iszero\n      tag_20\n      jumpi\n      revert(0x00, 0x00)\n    tag_20:\n      pop\n      tag_21\n      tag_22\n      jump\t// in\n    tag_21:\n      mload(0x40)\n      tag_23\n      swap2\n      swap1\n      tag_24\n      jump\t// in\n    tag_23:\n      mload(0x40)\n      dup1\n      swap2\n      sub\n      swap1\n      return\n        /* \"FundMe.sol\":1068:1213  function getPrice  () view  public returns (int256) {... */\n    tag_5:\n      callvalue\n      dup1\n      iszero\n      tag_25\n      jumpi\n      revert(0x00, 0x00)\n    tag_25:\n      pop\n      tag_26\n      tag_27\n      jump\t// in\n    tag_26:\n      mload(0x40)\n      tag_28\n      swap2\n      swap1\n      tag_29\n      jump\t// in\n    tag_28:\n      mload(0x40)\n      dup1\n      swap2\n      sub\n      swap1\n      return\n        /* \"FundMe.sol\":701:1060  function fund () public payable  {... */\n    tag_6:\n      tag_30\n      tag_31\n      jump\t// in\n    tag_30:\n      stop\n        /* \"FundMe.sol\":634:659  address [] public funders */\n    tag_7:\n      callvalue\n      dup1\n      iszero\n      tag_32\n      jumpi\n      revert(0x00, 0x00)\n    tag_32:\n      pop\n      tag_33\n      0x04\n      dup1\n      calldatasize\n      sub\n      dup2\n      add\n      swap1\n      tag_34\n      swap2\n      swap1\n      tag_13\n      jump\t// in\n    tag_34:\n      tag_35\n      jump\t// in\n    tag_33:\n      mload(0x40)\n      tag_36\n      swap2\n      swap1\n      tag_37\n      jump\t// in\n    tag_36:\n      mload(0x40)\n      dup1\n      swap2\n      sub\n      swap1\n      return\n        /* \"FundMe.sol\":530:579  mapping (address => uint256 ) public amountFunded */\n    tag_8:\n      callvalue\n      dup1\n      iszero\n      tag_38\n      jumpi\n      revert(0x00, 0x00)\n    tag_38:\n      pop\n      tag_39\n      0x04\n      dup1\n      calldatasize\n      sub\n      dup2\n      add\n      swap1\n      tag_40\n      swap2\n      swap1\n      tag_41\n      jump\t// in\n    tag_40:\n      tag_42\n      jump\t// in\n    tag_39:\n      mload(0x40)\n      tag_43\n      swap2\n      swap1\n      tag_16\n      jump\t// in\n    tag_43:\n      mload(0x40)\n      dup1\n      swap2\n      sub\n      swap1\n      return\n        /* \"FundMe.sol\":1221:1484  function getConversion (uint256 _ethAmount)  view public returns (uint256) {... */\n    tag_14:\n        /* \"FundMe.sol\":1287:1294  uint256 */\n      0x00\n        /* \"FundMe.sol\":1307:1322  int256 rawPrice */\n      0x00\n        /* \"FundMe.sol\":1325:1335  getPrice() */\n      tag_45\n        /* \"FundMe.sol\":1325:1333  getPrice */\n      tag_27\n        /* \"FundMe.sol\":1325:1335  getPrice() */\n      jump\t// in\n    tag_45:\n        /* \"FundMe.sol\":1307:1335  int256 rawPrice = getPrice() */\n      swap1\n      pop\n        /* \"FundMe.sol\":1365:1366  0 */\n      0x00\n        /* \"FundMe.sol\":1354:1362  rawPrice */\n      dup2\n        /* \"FundMe.sol\":1354:1366  rawPrice > 0 */\n      sgt\n        /* \"FundMe.sol\":1346:1384  require(rawPrice > 0, \"Invalid Price\") */\n      tag_46\n      jumpi\n      mload(0x40)\n      0x08c379a000000000000000000000000000000000000000000000000000000000\n      dup2\n      mstore\n      0x04\n      add\n      tag_47\n      swap1\n      tag_48\n      jump\t// in\n    tag_47:\n      mload(0x40)\n      dup1\n      swap2\n      sub\n      swap1\n      revert\n    tag_46:\n        /* \"FundMe.sol\":1397:1410  uint256 price */\n      0x00\n        /* \"FundMe.sol\":1421:1429  rawPrice */\n      dup2\n        /* \"FundMe.sol\":1397:1430  uint256 price = uint256(rawPrice) */\n      swap1\n      pop\n        /* \"FundMe.sol\":1473:1476  1e8 */\n      0x05f5e100\n        /* \"FundMe.sol\":1459:1469  _ethAmount */\n      dup5\n        /* \"FundMe.sol\":1451:1456  price */\n      dup3\n        /* \"FundMe.sol\":1451:1469  price * _ethAmount */\n      tag_49\n      swap2\n      swap1\n      tag_50\n      jump\t// in\n    tag_49:\n        /* \"FundMe.sol\":1450:1476  (price * _ethAmount) / 1e8 */\n      tag_51\n      swap2\n      swap1\n      tag_52\n      jump\t// in\n    tag_51:\n        /* \"FundMe.sol\":1443:1476  return (price * _ethAmount) / 1e8 */\n      swap3\n      pop\n      pop\n      pop\n        /* \"FundMe.sol\":1221:1484  function getConversion (uint256 _ethAmount)  view public returns (uint256) {... */\n      swap2\n      swap1\n      pop\n      jump\t// out\n        /* \"FundMe.sol\":1494:1659  function withdraw () public {... */\n    tag_19:\n        /* \"FundMe.sol\":1555:1560  owner */\n      immutable(\"0xe921da22f871c25c63f06c1365385cbb26397f64f79055cdbab32187a9377d16\")\n        /* \"FundMe.sol\":1541:1560  msg.sender == owner */\n      0xffffffffffffffffffffffffffffffffffffffff\n      and\n        /* \"FundMe.sol\":1541:1551  msg.sender */\n      caller\n        /* \"FundMe.sol\":1541:1560  msg.sender == owner */\n      0xffffffffffffffffffffffffffffffffffffffff\n      and\n      eq\n        /* \"FundMe.sol\":1533:1592  require(msg.sender == owner, \"You don't own this contract\") */\n      tag_54\n      jumpi\n      mload(0x40)\n      0x08c379a000000000000000000000000000000000000000000000000000000000\n      dup2\n      mstore\n      0x04\n      add\n      tag_55\n      swap1\n      tag_56\n      jump\t// in\n    tag_55:\n      mload(0x40)\n      dup1\n      swap2\n      sub\n      swap1\n      revert\n    tag_54:\n        /* \"FundMe.sol\":1611:1616  owner */\n      immutable(\"0xe921da22f871c25c63f06c1365385cbb26397f64f79055cdbab32187a9377d16\")\n        /* \"FundMe.sol\":1603:1626  payable(owner).transfer */\n      0xffffffffffffffffffffffffffffffffffffffff\n      and\n        /* \"FundMe.sol\":1603:1649  payable(owner).transfer(address(this).balance) */\n      0x08fc\n        /* \"FundMe.sol\":1627:1648  address(this).balance */\n      selfbalance\n        /* \"FundMe.sol\":1603:1649  payable(owner).transfer(address(this).balance) */\n      swap1\n      dup2\n      iszero\n      mul\n      swap1\n      mload(0x40)\n      0x00\n      mload(0x40)\n      dup1\n      dup4\n      sub\n      dup2\n      dup6\n      dup9\n      dup9\n      call\n      swap4\n      pop\n      pop\n      pop\n      pop\n      iszero\n      dup1\n      iszero\n      tag_58\n      jumpi\n      returndatacopy(0x00, 0x00, returndatasize)\n      revert(0x00, returndatasize)\n    tag_58:\n      pop\n        /* \"FundMe.sol\":1494:1659  function withdraw () public {... */\n      jump\t// out\n        /* \"FundMe.sol\":241:289  AggregatorV3Interface public immutable priceFeed */\n    tag_22:\n      immutable(\"0x6590fa52fa76f967656340b874bc9ca09733c2fddea9886210ebcbbceee04b35\")\n      dup2\n      jump\t// out\n        /* \"FundMe.sol\":1068:1213  function getPrice  () view  public returns (int256) {... */\n    tag_27:\n        /* \"FundMe.sol\":1112:1118  int256 */\n      0x00\n        /* \"FundMe.sol\":1134:1146  int256 price */\n      0x00\n        /* \"FundMe.sol\":1154:1163  priceFeed */\n      immutable(\"0x6590fa52fa76f967656340b874bc9ca09733c2fddea9886210ebcbbceee04b35\")\n        /* \"FundMe.sol\":1154:1179  priceFeed.latestRoundData */\n      0xffffffffffffffffffffffffffffffffffffffff\n      and\n      0xfeaf968c\n        /* \"FundMe.sol\":1154:1182  priceFeed.latestRoundData () */\n      mload(0x40)\n      dup2\n      0xffffffff\n      and\n      0xe0\n      shl\n      dup2\n      mstore\n      0x04\n      add\n      0xa0\n      mload(0x40)\n      dup1\n      dup4\n      sub\n      dup2\n      dup7\n      gas\n      staticcall\n      iszero\n      dup1\n      iszero\n      tag_61\n      jumpi\n      returndatacopy(0x00, 0x00, returndatasize)\n      revert(0x00, returndatasize)\n    tag_61:\n      pop\n      pop\n      pop\n      pop\n      mload(0x40)\n      returndatasize\n      not(0x1f)\n      0x1f\n      dup3\n      add\n      and\n      dup3\n      add\n      dup1\n      0x40\n      mstore\n      pop\n      dup2\n      add\n      swap1\n      tag_62\n      swap2\n      swap1\n      tag_63\n      jump\t// in\n    tag_62:\n        /* \"FundMe.sol\":1131:1182  (, int256 price, , ,)= priceFeed.latestRoundData () */\n      pop\n      pop\n      pop\n      swap2\n      pop\n      pop\n        /* \"FundMe.sol\":1200:1205  price */\n      dup1\n        /* \"FundMe.sol\":1193:1205  return price */\n      swap2\n      pop\n      pop\n        /* \"FundMe.sol\":1068:1213  function getPrice  () view  public returns (int256) {... */\n      swap1\n      jump\t// out\n        /* \"FundMe.sol\":701:1060  function fund () public payable  {... */\n    tag_31:\n        /* \"FundMe.sol\":745:761  uint256 ethInUsd */\n      0x00\n        /* \"FundMe.sol\":765:789  getConversion(msg.value) */\n      tag_65\n        /* \"FundMe.sol\":779:788  msg.value */\n      callvalue\n        /* \"FundMe.sol\":765:778  getConversion */\n      tag_14\n        /* \"FundMe.sol\":765:789  getConversion(msg.value) */\n      jump\t// in\n    tag_65:\n        /* \"FundMe.sol\":745:789  uint256 ethInUsd =  getConversion(msg.value) */\n      swap1\n      pop\n        /* \"FundMe.sol\":904:908  1e18 */\n      0x0de0b6b3a7640000\n        /* \"FundMe.sol\":231:232  5 */\n      0x05\n        /* \"FundMe.sol\":891:908  minimumUsd * 1e18 */\n      tag_66\n      swap2\n      swap1\n      tag_50\n      jump\t// in\n    tag_66:\n        /* \"FundMe.sol\":879:887  ethInUsd */\n      dup2\n        /* \"FundMe.sol\":879:908  ethInUsd >= minimumUsd * 1e18 */\n      lt\n      iszero\n        /* \"FundMe.sol\":869:930  require ( ethInUsd >= minimumUsd * 1e18, \"Not enough of ETH\") */\n      tag_67\n      jumpi\n      mload(0x40)\n      0x08c379a000000000000000000000000000000000000000000000000000000000\n      dup2\n      mstore\n      0x04\n      add\n      tag_68\n      swap1\n      tag_69\n      jump\t// in\n    tag_68:\n      mload(0x40)\n      dup1\n      swap2\n      sub\n      swap1\n      revert\n    tag_67:\n        /* \"FundMe.sol\":1008:1017  msg.value */\n      callvalue\n        /* \"FundMe.sol\":980:992  amountFunded */\n      0x00\n        /* \"FundMe.sol\":980:1004  amountFunded[msg.sender] */\n      0x00\n        /* \"FundMe.sol\":993:1003  msg.sender */\n      caller\n        /* \"FundMe.sol\":980:1004  amountFunded[msg.sender] */\n      0xffffffffffffffffffffffffffffffffffffffff\n      and\n      0xffffffffffffffffffffffffffffffffffffffff\n      and\n      dup2\n      mstore\n      0x20\n      add\n      swap1\n      dup2\n      mstore\n      0x20\n      add\n      0x00\n      keccak256\n      0x00\n        /* \"FundMe.sol\":980:1017  amountFunded[msg.sender] += msg.value */\n      dup3\n      dup3\n      sload\n      tag_70\n      swap2\n      swap1\n      tag_71\n      jump\t// in\n    tag_70:\n      swap3\n      pop\n      pop\n      dup2\n      swap1\n      sstore\n      pop\n        /* \"FundMe.sol\":1028:1035  funders */\n      0x01\n        /* \"FundMe.sol\":1041:1051  msg.sender */\n      caller\n        /* \"FundMe.sol\":1028:1052  funders.push(msg.sender) */\n      swap1\n      dup1\n      0x01\n      dup2\n      sload\n      add\n      dup1\n      dup3\n      sstore\n      dup1\n      swap2\n      pop\n      pop\n      0x01\n      swap1\n      sub\n      swap1\n      0x00\n      mstore\n      keccak256(0x00, 0x20)\n      add\n      0x00\n      swap1\n      swap2\n      swap1\n      swap2\n      swap1\n      swap2\n      0x0100\n      exp\n      dup2\n      sload\n      dup2\n      0xffffffffffffffffffffffffffffffffffffffff\n      mul\n      not\n      and\n      swap1\n      dup4\n      0xffffffffffffffffffffffffffffffffffffffff\n      and\n      mul\n      or\n      swap1\n      sstore\n      pop\n        /* \"FundMe.sol\":734:1060  {... */\n      pop\n        /* \"FundMe.sol\":701:1060  function fund () public payable  {... */\n      jump\t// out\n        /* \"FundMe.sol\":634:659  address [] public funders */\n    tag_35:\n      0x01\n      dup2\n      dup2\n      sload\n      dup2\n      lt\n      tag_73\n      jumpi\n      0x00\n      dup1\n      revert\n    tag_73:\n      swap1\n      0x00\n      mstore\n      keccak256(0x00, 0x20)\n      add\n      0x00\n      swap2\n      pop\n      sload\n      swap1\n      0x0100\n      exp\n      swap1\n      div\n      0xffffffffffffffffffffffffffffffffffffffff\n      and\n      dup2\n      jump\t// out\n        /* \"FundMe.sol\":530:579  mapping (address => uint256 ) public amountFunded */\n    tag_42:\n      mstore(0x20, 0x00)\n      dup1\n      0x00\n      mstore\n      keccak256(0x00, 0x40)\n      0x00\n      swap2\n      pop\n      swap1\n      pop\n      sload\n      dup2\n      jump\t// out\n        /* \"#utility.yul\":88:205   */\n    tag_76:\n        /* \"#utility.yul\":197:198   */\n      0x00\n        /* \"#utility.yul\":194:195   */\n      0x00\n        /* \"#utility.yul\":187:199   */\n      revert\n        /* \"#utility.yul\":334:411   */\n    tag_78:\n        /* \"#utility.yul\":371:378   */\n      0x00\n        /* \"#utility.yul\":400:405   */\n      dup2\n        /* \"#utility.yul\":389:405   */\n      swap1\n      pop\n        /* \"#utility.yul\":334:411   */\n      swap2\n      swap1\n      pop\n      jump\t// out\n        /* \"#utility.yul\":417:539   */\n    tag_79:\n        /* \"#utility.yul\":490:514   */\n      tag_115\n        /* \"#utility.yul\":508:513   */\n      dup2\n        /* \"#utility.yul\":490:514   */\n      tag_78\n      jump\t// in\n    tag_115:\n        /* \"#utility.yul\":483:488   */\n      dup2\n        /* \"#utility.yul\":480:515   */\n      eq\n        /* \"#utility.yul\":470:533   */\n      tag_116\n      jumpi\n        /* \"#utility.yul\":529:530   */\n      0x00\n        /* \"#utility.yul\":526:527   */\n      0x00\n        /* \"#utility.yul\":519:531   */\n      revert\n        /* \"#utility.yul\":470:533   */\n    tag_116:\n        /* \"#utility.yul\":417:539   */\n      pop\n      jump\t// out\n        /* \"#utility.yul\":545:684   */\n    tag_80:\n        /* \"#utility.yul\":591:596   */\n      0x00\n        /* \"#utility.yul\":629:635   */\n      dup2\n        /* \"#utility.yul\":616:636   */\n      calldataload\n        /* \"#utility.yul\":607:636   */\n      swap1\n      pop\n        /* \"#utility.yul\":645:678   */\n      tag_118\n        /* \"#utility.yul\":672:677   */\n      dup2\n        /* \"#utility.yul\":645:678   */\n      tag_79\n      jump\t// in\n    tag_118:\n        /* \"#utility.yul\":545:684   */\n      swap3\n      swap2\n      pop\n      pop\n      jump\t// out\n        /* \"#utility.yul\":690:1019   */\n    tag_13:\n        /* \"#utility.yul\":749:755   */\n      0x00\n        /* \"#utility.yul\":798:800   */\n      0x20\n        /* \"#utility.yul\":786:795   */\n      dup3\n        /* \"#utility.yul\":777:784   */\n      dup5\n        /* \"#utility.yul\":773:796   */\n      sub\n        /* \"#utility.yul\":769:801   */\n      slt\n        /* \"#utility.yul\":766:885   */\n      iszero\n      tag_120\n      jumpi\n        /* \"#utility.yul\":804:883   */\n      tag_121\n      tag_76\n      jump\t// in\n    tag_121:\n        /* \"#utility.yul\":766:885   */\n    tag_120:\n        /* \"#utility.yul\":924:925   */\n      0x00\n        /* \"#utility.yul\":949:1002   */\n      tag_122\n        /* \"#utility.yul\":994:1001   */\n      dup5\n        /* \"#utility.yul\":985:991   */\n      dup3\n        /* \"#utility.yul\":974:983   */\n      dup6\n        /* \"#utility.yul\":970:992   */\n      add\n        /* \"#utility.yul\":949:1002   */\n      tag_80\n      jump\t// in\n    tag_122:\n        /* \"#utility.yul\":939:1002   */\n      swap2\n      pop\n        /* \"#utility.yul\":895:1012   */\n      pop\n        /* \"#utility.yul\":690:1019   */\n      swap3\n      swap2\n      pop\n      pop\n      jump\t// out\n        /* \"#utility.yul\":1025:1143   */\n    tag_81:\n        /* \"#utility.yul\":1112:1136   */\n      tag_124\n        /* \"#utility.yul\":1130:1135   */\n      dup2\n        /* \"#utility.yul\":1112:1136   */\n      tag_78\n      jump\t// in\n    tag_124:\n        /* \"#utility.yul\":1107:1110   */\n      dup3\n        /* \"#utility.yul\":1100:1137   */\n      mstore\n        /* \"#utility.yul\":1025:1143   */\n      pop\n      pop\n      jump\t// out\n        /* \"#utility.yul\":1149:1371   */\n    tag_16:\n        /* \"#utility.yul\":1242:1246   */\n      0x00\n        /* \"#utility.yul\":1280:1282   */\n      0x20\n        /* \"#utility.yul\":1269:1278   */\n      dup3\n        /* \"#utility.yul\":1265:1283   */\n      add\n        /* \"#utility.yul\":1257:1283   */\n      swap1\n      pop\n        /* \"#utility.yul\":1293:1364   */\n      tag_126\n        /* \"#utility.yul\":1361:1362   */\n      0x00\n        /* \"#utility.yul\":1350:1359   */\n      dup4\n        /* \"#utility.yul\":1346:1363   */\n      add\n        /* \"#utility.yul\":1337:1343   */\n      dup5\n        /* \"#utility.yul\":1293:1364   */\n      tag_81\n      jump\t// in\n    tag_126:\n        /* \"#utility.yul\":1149:1371   */\n      swap3\n      swap2\n      pop\n      pop\n      jump\t// out\n        /* \"#utility.yul\":1377:1503   */\n    tag_82:\n        /* \"#utility.yul\":1414:1421   */\n      0x00\n        /* \"#utility.yul\":1454:1496   */\n      0xffffffffffffffffffffffffffffffffffffffff\n        /* \"#utility.yul\":1447:1452   */\n      dup3\n        /* \"#utility.yul\":1443:1497   */\n      and\n        /* \"#utility.yul\":1432:1497   */\n      swap1\n      pop\n        /* \"#utility.yul\":1377:1503   */\n      swap2\n      swap1\n      pop\n      jump\t// out\n        /* \"#utility.yul\":1509:1569   */\n    tag_83:\n        /* \"#utility.yul\":1537:1540   */\n      0x00\n        /* \"#utility.yul\":1558:1563   */\n      dup2\n        /* \"#utility.yul\":1551:1563   */\n      swap1\n      pop\n        /* \"#utility.yul\":1509:1569   */\n      swap2\n      swap1\n      pop\n      jump\t// out\n        /* \"#utility.yul\":1575:1717   */\n    tag_84:\n        /* \"#utility.yul\":1625:1634   */\n      0x00\n        /* \"#utility.yul\":1658:1711   */\n      tag_130\n        /* \"#utility.yul\":1676:1710   */\n      tag_131\n        /* \"#utility.yul\":1685:1709   */\n      tag_132\n        /* \"#utility.yul\":1703:1708   */\n      dup5\n        /* \"#utility.yul\":1685:1709   */\n      tag_82\n      jump\t// in\n    tag_132:\n        /* \"#utility.yul\":1676:1710   */\n      tag_83\n      jump\t// in\n    tag_131:\n        /* \"#utility.yul\":1658:1711   */\n      tag_82\n      jump\t// in\n    tag_130:\n        /* \"#utility.yul\":1645:1711   */\n      swap1\n      pop\n        /* \"#utility.yul\":1575:1717   */\n      swap2\n      swap1\n      pop\n      jump\t// out\n        /* \"#utility.yul\":1723:1849   */\n    tag_85:\n        /* \"#utility.yul\":1773:1782   */\n      0x00\n        /* \"#utility.yul\":1806:1843   */\n      tag_134\n        /* \"#utility.yul\":1837:1842   */\n      dup3\n        /* \"#utility.yul\":1806:1843   */\n      tag_84\n      jump\t// in\n    tag_134:\n        /* \"#utility.yul\":1793:1843   */\n      swap1\n      pop\n        /* \"#utility.yul\":1723:1849   */\n      swap2\n      swap1\n      pop\n      jump\t// out\n        /* \"#utility.yul\":1855:2009   */\n    tag_86:\n        /* \"#utility.yul\":1933:1942   */\n      0x00\n        /* \"#utility.yul\":1966:2003   */\n      tag_136\n        /* \"#utility.yul\":1997:2002   */\n      dup3\n        /* \"#utility.yul\":1966:2003   */\n      tag_85\n      jump\t// in\n    tag_136:\n        /* \"#utility.yul\":1953:2003   */\n      swap1\n      pop\n        /* \"#utility.yul\":1855:2009   */\n      swap2\n      swap1\n      pop\n      jump\t// out\n        /* \"#utility.yul\":2015:2202   */\n    tag_87:\n        /* \"#utility.yul\":2130:2195   */\n      tag_138\n        /* \"#utility.yul\":2189:2194   */\n      dup2\n        /* \"#utility.yul\":2130:2195   */\n      tag_86\n      jump\t// in\n    tag_138:\n        /* \"#utility.yul\":2125:2128   */\n      dup3\n        /* \"#utility.yul\":2118:2196   */\n      mstore\n        /* \"#utility.yul\":2015:2202   */\n      pop\n      pop\n      jump\t// out\n        /* \"#utility.yul\":2208:2486   */\n    tag_24:\n        /* \"#utility.yul\":2329:2333   */\n      0x00\n        /* \"#utility.yul\":2367:2369   */\n      0x20\n        /* \"#utility.yul\":2356:2365   */\n      dup3\n        /* \"#utility.yul\":2352:2370   */\n      add\n        /* \"#utility.yul\":2344:2370   */\n      swap1\n      pop\n        /* \"#utility.yul\":2380:2479   */\n      tag_140\n        /* \"#utility.yul\":2476:2477   */\n      0x00\n        /* \"#utility.yul\":2465:2474   */\n      dup4\n        /* \"#utility.yul\":2461:2478   */\n      add\n        /* \"#utility.yul\":2452:2458   */\n      dup5\n        /* \"#utility.yul\":2380:2479   */\n      tag_87\n      jump\t// in\n    tag_140:\n        /* \"#utility.yul\":2208:2486   */\n      swap3\n      swap2\n      pop\n      pop\n      jump\t// out\n        /* \"#utility.yul\":2492:2568   */\n    tag_88:\n        /* \"#utility.yul\":2528:2535   */\n      0x00\n        /* \"#utility.yul\":2557:2562   */\n      dup2\n        /* \"#utility.yul\":2546:2562   */\n      swap1\n      pop\n        /* \"#utility.yul\":2492:2568   */\n      swap2\n      swap1\n      pop\n      jump\t// out\n        /* \"#utility.yul\":2574:2689   */\n    tag_89:\n        /* \"#utility.yul\":2659:2682   */\n      tag_143\n        /* \"#utility.yul\":2676:2681   */\n      dup2\n        /* \"#utility.yul\":2659:2682   */\n      tag_88\n      jump\t// in\n    tag_143:\n        /* \"#utility.yul\":2654:2657   */\n      dup3\n        /* \"#utility.yul\":2647:2683   */\n      mstore\n        /* \"#utility.yul\":2574:2689   */\n      pop\n      pop\n      jump\t// out\n        /* \"#utility.yul\":2695:2913   */\n    tag_29:\n        /* \"#utility.yul\":2786:2790   */\n      0x00\n        /* \"#utility.yul\":2824:2826   */\n      0x20\n        /* \"#utility.yul\":2813:2822   */\n      dup3\n        /* \"#utility.yul\":2809:2827   */\n      add\n        /* \"#utility.yul\":2801:2827   */\n      swap1\n      pop\n        /* \"#utility.yul\":2837:2906   */\n      tag_145\n        /* \"#utility.yul\":2903:2904   */\n      0x00\n        /* \"#utility.yul\":2892:2901   */\n      dup4\n        /* \"#utility.yul\":2888:2905   */\n      add\n        /* \"#utility.yul\":2879:2885   */\n      dup5\n        /* \"#utility.yul\":2837:2906   */\n      tag_89\n      jump\t// in\n    tag_145:\n        /* \"#utility.yul\":2695:2913   */\n      swap3\n      swap2\n      pop\n      pop\n      jump\t// out\n        /* \"#utility.yul\":2919:3015   */\n    tag_90:\n        /* \"#utility.yul\":2956:2963   */\n      0x00\n        /* \"#utility.yul\":2985:3009   */\n      tag_147\n        /* \"#utility.yul\":3003:3008   */\n      dup3\n        /* \"#utility.yul\":2985:3009   */\n      tag_82\n      jump\t// in\n    tag_147:\n        /* \"#utility.yul\":2974:3009   */\n      swap1\n      pop\n        /* \"#utility.yul\":2919:3015   */\n      swap2\n      swap1\n      pop\n      jump\t// out\n        /* \"#utility.yul\":3021:3139   */\n    tag_91:\n        /* \"#utility.yul\":3108:3132   */\n      tag_149\n        /* \"#utility.yul\":3126:3131   */\n      dup2\n        /* \"#utility.yul\":3108:3132   */\n      tag_90\n      jump\t// in\n    tag_149:\n        /* \"#utility.yul\":3103:3106   */\n      dup3\n        /* \"#utility.yul\":3096:3133   */\n      mstore\n        /* \"#utility.yul\":3021:3139   */\n      pop\n      pop\n      jump\t// out\n        /* \"#utility.yul\":3145:3367   */\n    tag_37:\n        /* \"#utility.yul\":3238:3242   */\n      0x00\n        /* \"#utility.yul\":3276:3278   */\n      0x20\n        /* \"#utility.yul\":3265:3274   */\n      dup3\n        /* \"#utility.yul\":3261:3279   */\n      add\n        /* \"#utility.yul\":3253:3279   */\n      swap1\n      pop\n        /* \"#utility.yul\":3289:3360   */\n      tag_151\n        /* \"#utility.yul\":3357:3358   */\n      0x00\n        /* \"#utility.yul\":3346:3355   */\n      dup4\n        /* \"#utility.yul\":3342:3359   */\n      add\n        /* \"#utility.yul\":3333:3339   */\n      dup5\n        /* \"#utility.yul\":3289:3360   */\n      tag_91\n      jump\t// in\n    tag_151:\n        /* \"#utility.yul\":3145:3367   */\n      swap3\n      swap2\n      pop\n      pop\n      jump\t// out\n        /* \"#utility.yul\":3373:3495   */\n    tag_92:\n        /* \"#utility.yul\":3446:3470   */\n      tag_153\n        /* \"#utility.yul\":3464:3469   */\n      dup2\n        /* \"#utility.yul\":3446:3470   */\n      tag_90\n      jump\t// in\n    tag_153:\n        /* \"#utility.yul\":3439:3444   */\n      dup2\n        /* \"#utility.yul\":3436:3471   */\n      eq\n        /* \"#utility.yul\":3426:3489   */\n      tag_154\n      jumpi\n        /* \"#utility.yul\":3485:3486   */\n      0x00\n        /* \"#utility.yul\":3482:3483   */\n      0x00\n        /* \"#utility.yul\":3475:3487   */\n      revert\n        /* \"#utility.yul\":3426:3489   */\n    tag_154:\n        /* \"#utility.yul\":3373:3495   */\n      pop\n      jump\t// out\n        /* \"#utility.yul\":3501:3640   */\n    tag_93:\n        /* \"#utility.yul\":3547:3552   */\n      0x00\n        /* \"#utility.yul\":3585:3591   */\n      dup2\n        /* \"#utility.yul\":3572:3592   */\n      calldataload\n        /* \"#utility.yul\":3563:3592   */\n      swap1\n      pop\n        /* \"#utility.yul\":3601:3634   */\n      tag_156\n        /* \"#utility.yul\":3628:3633   */\n      dup2\n        /* \"#utility.yul\":3601:3634   */\n      tag_92\n      jump\t// in\n    tag_156:\n        /* \"#utility.yul\":3501:3640   */\n      swap3\n      swap2\n      pop\n      pop\n      jump\t// out\n        /* \"#utility.yul\":3646:3975   */\n    tag_41:\n        /* \"#utility.yul\":3705:3711   */\n      0x00\n        /* \"#utility.yul\":3754:3756   */\n      0x20\n        /* \"#utility.yul\":3742:3751   */\n      dup3\n        /* \"#utility.yul\":3733:3740   */\n      dup5\n        /* \"#utility.yul\":3729:3752   */\n      sub\n        /* \"#utility.yul\":3725:3757   */\n      slt\n        /* \"#utility.yul\":3722:3841   */\n      iszero\n      tag_158\n      jumpi\n        /* \"#utility.yul\":3760:3839   */\n      tag_159\n      tag_76\n      jump\t// in\n    tag_159:\n        /* \"#utility.yul\":3722:3841   */\n    tag_158:\n        /* \"#utility.yul\":3880:3881   */\n      0x00\n        /* \"#utility.yul\":3905:3958   */\n      tag_160\n        /* \"#utility.yul\":3950:3957   */\n      dup5\n        /* \"#utility.yul\":3941:3947   */\n      dup3\n        /* \"#utility.yul\":3930:3939   */\n      dup6\n        /* \"#utility.yul\":3926:3948   */\n      add\n        /* \"#utility.yul\":3905:3958   */\n      tag_93\n      jump\t// in\n    tag_160:\n        /* \"#utility.yul\":3895:3958   */\n      swap2\n      pop\n        /* \"#utility.yul\":3851:3968   */\n      pop\n        /* \"#utility.yul\":3646:3975   */\n      swap3\n      swap2\n      pop\n      pop\n      jump\t// out\n        /* \"#utility.yul\":3981:4150   */\n    tag_94:\n        /* \"#utility.yul\":4065:4076   */\n      0x00\n        /* \"#utility.yul\":4099:4105   */\n      dup3\n        /* \"#utility.yul\":4094:4097   */\n      dup3\n        /* \"#utility.yul\":4087:4106   */\n      mstore\n        /* \"#utility.yul\":4139:4143   */\n      0x20\n        /* \"#utility.yul\":4134:4137   */\n      dup3\n        /* \"#utility.yul\":4130:4144   */\n      add\n        /* \"#utility.yul\":4115:4144   */\n      swap1\n      pop\n        /* \"#utility.yul\":3981:4150   */\n      swap3\n      swap2\n      pop\n      pop\n      jump\t// out\n        /* \"#utility.yul\":4156:4319   */\n    tag_95:\n        /* \"#utility.yul\":4296:4311   */\n      0x496e76616c696420507269636500000000000000000000000000000000000000\n        /* \"#utility.yul\":4292:4293   */\n      0x00\n        /* \"#utility.yul\":4284:4290   */\n      dup3\n        /* \"#utility.yul\":4280:4294   */\n      add\n        /* \"#utility.yul\":4273:4312   */\n      mstore\n        /* \"#utility.yul\":4156:4319   */\n      pop\n      jump\t// out\n        /* \"#utility.yul\":4325:4691   */\n    tag_96:\n        /* \"#utility.yul\":4467:4470   */\n      0x00\n        /* \"#utility.yul\":4488:4555   */\n      tag_164\n        /* \"#utility.yul\":4552:4554   */\n      0x0d\n        /* \"#utility.yul\":4547:4550   */\n      dup4\n        /* \"#utility.yul\":4488:4555   */\n      tag_94\n      jump\t// in\n    tag_164:\n        /* \"#utility.yul\":4481:4555   */\n      swap2\n      pop\n        /* \"#utility.yul\":4564:4657   */\n      tag_165\n        /* \"#utility.yul\":4653:4656   */\n      dup3\n        /* \"#utility.yul\":4564:4657   */\n      tag_95\n      jump\t// in\n    tag_165:\n        /* \"#utility.yul\":4682:4684   */\n      0x20\n        /* \"#utility.yul\":4677:4680   */\n      dup3\n        /* \"#utility.yul\":4673:4685   */\n      add\n        /* \"#utility.yul\":4666:4685   */\n      swap1\n      pop\n        /* \"#utility.yul\":4325:4691   */\n      swap2\n      swap1\n      pop\n      jump\t// out\n        /* \"#utility.yul\":4697:5116   */\n    tag_48:\n        /* \"#utility.yul\":4863:4867   */\n      0x00\n        /* \"#utility.yul\":4901:4903   */\n      0x20\n        /* \"#utility.yul\":4890:4899   */\n      dup3\n        /* \"#utility.yul\":4886:4904   */\n      add\n        /* \"#utility.yul\":4878:4904   */\n      swap1\n      pop\n        /* \"#utility.yul\":4950:4959   */\n      dup2\n        /* \"#utility.yul\":4944:4948   */\n      dup2\n        /* \"#utility.yul\":4940:4960   */\n      sub\n        /* \"#utility.yul\":4936:4937   */\n      0x00\n        /* \"#utility.yul\":4925:4934   */\n      dup4\n        /* \"#utility.yul\":4921:4938   */\n      add\n        /* \"#utility.yul\":4914:4961   */\n      mstore\n        /* \"#utility.yul\":4978:5109   */\n      tag_167\n        /* \"#utility.yul\":5104:5108   */\n      dup2\n        /* \"#utility.yul\":4978:5109   */\n      tag_96\n      jump\t// in\n    tag_167:\n        /* \"#utility.yul\":4970:5109   */\n      swap1\n      pop\n        /* \"#utility.yul\":4697:5116   */\n      swap2\n      swap1\n      pop\n      jump\t// out\n        /* \"#utility.yul\":5122:5302   */\n    tag_97:\n        /* \"#utility.yul\":5170:5247   */\n      0x4e487b7100000000000000000000000000000000000000000000000000000000\n        /* \"#utility.yul\":5167:5168   */\n      0x00\n        /* \"#utility.yul\":5160:5248   */\n      mstore\n        /* \"#utility.yul\":5267:5271   */\n      0x11\n        /* \"#utility.yul\":5264:5265   */\n      0x04\n        /* \"#utility.yul\":5257:5272   */\n      mstore\n        /* \"#utility.yul\":5291:5295   */\n      0x24\n        /* \"#utility.yul\":5288:5289   */\n      0x00\n        /* \"#utility.yul\":5281:5296   */\n      revert\n        /* \"#utility.yul\":5308:5718   */\n    tag_50:\n        /* \"#utility.yul\":5348:5355   */\n      0x00\n        /* \"#utility.yul\":5371:5391   */\n      tag_170\n        /* \"#utility.yul\":5389:5390   */\n      dup3\n        /* \"#utility.yul\":5371:5391   */\n      tag_78\n      jump\t// in\n    tag_170:\n        /* \"#utility.yul\":5366:5391   */\n      swap2\n      pop\n        /* \"#utility.yul\":5405:5425   */\n      tag_171\n        /* \"#utility.yul\":5423:5424   */\n      dup4\n        /* \"#utility.yul\":5405:5425   */\n      tag_78\n      jump\t// in\n    tag_171:\n        /* \"#utility.yul\":5400:5425   */\n      swap3\n      pop\n        /* \"#utility.yul\":5460:5461   */\n      dup3\n        /* \"#utility.yul\":5457:5458   */\n      dup3\n        /* \"#utility.yul\":5453:5462   */\n      mul\n        /* \"#utility.yul\":5482:5512   */\n      tag_172\n        /* \"#utility.yul\":5500:5511   */\n      dup2\n        /* \"#utility.yul\":5482:5512   */\n      tag_78\n      jump\t// in\n    tag_172:\n        /* \"#utility.yul\":5471:5512   */\n      swap2\n      pop\n        /* \"#utility.yul\":5661:5662   */\n      dup3\n        /* \"#utility.yul\":5652:5659   */\n      dup3\n        /* \"#utility.yul\":5648:5663   */\n      div\n        /* \"#utility.yul\":5645:5646   */\n      dup5\n        /* \"#utility.yul\":5642:5664   */\n      eq\n        /* \"#utility.yul\":5622:5623   */\n      dup4\n        /* \"#utility.yul\":5615:5624   */\n      iszero\n        /* \"#utility.yul\":5595:5678   */\n      or\n        /* \"#utility.yul\":5572:5711   */\n      tag_173\n      jumpi\n        /* \"#utility.yul\":5691:5709   */\n      tag_174\n      tag_97\n      jump\t// in\n    tag_174:\n        /* \"#utility.yul\":5572:5711   */\n    tag_173:\n        /* \"#utility.yul\":5356:5718   */\n      pop\n        /* \"#utility.yul\":5308:5718   */\n      swap3\n      swap2\n      pop\n      pop\n      jump\t// out\n        /* \"#utility.yul\":5724:5904   */\n    tag_98:\n        /* \"#utility.yul\":5772:5849   */\n      0x4e487b7100000000000000000000000000000000000000000000000000000000\n        /* \"#utility.yul\":5769:5770   */\n      0x00\n        /* \"#utility.yul\":5762:5850   */\n      mstore\n        /* \"#utility.yul\":5869:5873   */\n      0x12\n        /* \"#utility.yul\":5866:5867   */\n      0x04\n        /* \"#utility.yul\":5859:5874   */\n      mstore\n        /* \"#utility.yul\":5893:5897   */\n      0x24\n        /* \"#utility.yul\":5890:5891   */\n      0x00\n        /* \"#utility.yul\":5883:5898   */\n      revert\n        /* \"#utility.yul\":5910:6095   */\n    tag_52:\n        /* \"#utility.yul\":5950:5951   */\n      0x00\n        /* \"#utility.yul\":5967:5987   */\n      tag_177\n        /* \"#utility.yul\":5985:5986   */\n      dup3\n        /* \"#utility.yul\":5967:5987   */\n      tag_78\n      jump\t// in\n    tag_177:\n        /* \"#utility.yul\":5962:5987   */\n      swap2\n      pop\n        /* \"#utility.yul\":6001:6021   */\n      tag_178\n        /* \"#utility.yul\":6019:6020   */\n      dup4\n        /* \"#utility.yul\":6001:6021   */\n      tag_78\n      jump\t// in\n    tag_178:\n        /* \"#utility.yul\":5996:6021   */\n      swap3\n      pop\n        /* \"#utility.yul\":6040:6041   */\n      dup3\n        /* \"#utility.yul\":6030:6065   */\n      tag_179\n      jumpi\n        /* \"#utility.yul\":6045:6063   */\n      tag_180\n      tag_98\n      jump\t// in\n    tag_180:\n        /* \"#utility.yul\":6030:6065   */\n    tag_179:\n        /* \"#utility.yul\":6087:6088   */\n      dup3\n        /* \"#utility.yul\":6084:6085   */\n      dup3\n        /* \"#utility.yul\":6080:6089   */\n      div\n        /* \"#utility.yul\":6075:6089   */\n      swap1\n      pop\n        /* \"#utility.yul\":5910:6095   */\n      swap3\n      swap2\n      pop\n      pop\n      jump\t// out\n        /* \"#utility.yul\":6101:6278   */\n    tag_99:\n        /* \"#utility.yul\":6241:6270   */\n      0x596f7520646f6e2774206f776e207468697320636f6e74726163740000000000\n        /* \"#utility.yul\":6237:6238   */\n      0x00\n        /* \"#utility.yul\":6229:6235   */\n      dup3\n        /* \"#utility.yul\":6225:6239   */\n      add\n        /* \"#utility.yul\":6218:6271   */\n      mstore\n        /* \"#utility.yul\":6101:6278   */\n      pop\n      jump\t// out\n        /* \"#utility.yul\":6284:6650   */\n    tag_100:\n        /* \"#utility.yul\":6426:6429   */\n      0x00\n        /* \"#utility.yul\":6447:6514   */\n      tag_183\n        /* \"#utility.yul\":6511:6513   */\n      0x1b\n        /* \"#utility.yul\":6506:6509   */\n      dup4\n        /* \"#utility.yul\":6447:6514   */\n      tag_94\n      jump\t// in\n    tag_183:\n        /* \"#utility.yul\":6440:6514   */\n      swap2\n      pop\n        /* \"#utility.yul\":6523:6616   */\n      tag_184\n        /* \"#utility.yul\":6612:6615   */\n      dup3\n        /* \"#utility.yul\":6523:6616   */\n      tag_99\n      jump\t// in\n    tag_184:\n        /* \"#utility.yul\":6641:6643   */\n      0x20\n        /* \"#utility.yul\":6636:6639   */\n      dup3\n        /* \"#utility.yul\":6632:6644   */\n      add\n        /* \"#utility.yul\":6625:6644   */\n      swap1\n      pop\n        /* \"#utility.yul\":6284:6650   */\n      swap2\n      swap1\n      pop\n      jump\t// out\n        /* \"#utility.yul\":6656:7075   */\n    tag_56:\n        /* \"#utility.yul\":6822:6826   */\n      0x00\n        /* \"#utility.yul\":6860:6862   */\n      0x20\n        /* \"#utility.yul\":6849:6858   */\n      dup3\n        /* \"#utility.yul\":6845:6863   */\n      add\n        /* \"#utility.yul\":6837:6863   */\n      swap1\n      pop\n        /* \"#utility.yul\":6909:6918   */\n      dup2\n        /* \"#utility.yul\":6903:6907   */\n      dup2\n        /* \"#utility.yul\":6899:6919   */\n      sub\n        /* \"#utility.yul\":6895:6896   */\n      0x00\n        /* \"#utility.yul\":6884:6893   */\n      dup4\n        /* \"#utility.yul\":6880:6897   */\n      add\n        /* \"#utility.yul\":6873:6920   */\n      mstore\n        /* \"#utility.yul\":6937:7068   */\n      tag_186\n        /* \"#utility.yul\":7063:7067   */\n      dup2\n        /* \"#utility.yul\":6937:7068   */\n      tag_100\n      jump\t// in\n    tag_186:\n        /* \"#utility.yul\":6929:7068   */\n      swap1\n      pop\n        /* \"#utility.yul\":6656:7075   */\n      swap2\n      swap1\n      pop\n      jump\t// out\n        /* \"#utility.yul\":7081:7186   */\n    tag_101:\n        /* \"#utility.yul\":7117:7124   */\n      0x00\n        /* \"#utility.yul\":7157:7179   */\n      0xffffffffffffffffffff\n        /* \"#utility.yul\":7150:7155   */\n      dup3\n        /* \"#utility.yul\":7146:7180   */\n      and\n        /* \"#utility.yul\":7135:7180   */\n      swap1\n      pop\n        /* \"#utility.yul\":7081:7186   */\n      swap2\n      swap1\n      pop\n      jump\t// out\n        /* \"#utility.yul\":7192:7312   */\n    tag_102:\n        /* \"#utility.yul\":7264:7287   */\n      tag_189\n        /* \"#utility.yul\":7281:7286   */\n      dup2\n        /* \"#utility.yul\":7264:7287   */\n      tag_101\n      jump\t// in\n    tag_189:\n        /* \"#utility.yul\":7257:7262   */\n      dup2\n        /* \"#utility.yul\":7254:7288   */\n      eq\n        /* \"#utility.yul\":7244:7306   */\n      tag_190\n      jumpi\n        /* \"#utility.yul\":7302:7303   */\n      0x00\n        /* \"#utility.yul\":7299:7300   */\n      0x00\n        /* \"#utility.yul\":7292:7304   */\n      revert\n        /* \"#utility.yul\":7244:7306   */\n    tag_190:\n        /* \"#utility.yul\":7192:7312   */\n      pop\n      jump\t// out\n        /* \"#utility.yul\":7318:7459   */\n    tag_103:\n        /* \"#utility.yul\":7374:7379   */\n      0x00\n        /* \"#utility.yul\":7405:7411   */\n      dup2\n        /* \"#utility.yul\":7399:7412   */\n      mload\n        /* \"#utility.yul\":7390:7412   */\n      swap1\n      pop\n        /* \"#utility.yul\":7421:7453   */\n      tag_192\n        /* \"#utility.yul\":7447:7452   */\n      dup2\n        /* \"#utility.yul\":7421:7453   */\n      tag_102\n      jump\t// in\n    tag_192:\n        /* \"#utility.yul\":7318:7459   */\n      swap3\n      swap2\n      pop\n      pop\n      jump\t// out\n        /* \"#utility.yul\":7465:7585   */\n    tag_104:\n        /* \"#utility.yul\":7537:7560   */\n      tag_194\n        /* \"#utility.yul\":7554:7559   */\n      dup2\n        /* \"#utility.yul\":7537:7560   */\n      tag_88\n      jump\t// in\n    tag_194:\n        /* \"#utility.yul\":7530:7535   */\n      dup2\n        /* \"#utility.yul\":7527:7561   */\n      eq\n        /* \"#utility.yul\":7517:7579   */\n      tag_195\n      jumpi\n        /* \"#utility.yul\":7575:7576   */\n      0x00\n        /* \"#utility.yul\":7572:7573   */\n      0x00\n        /* \"#utility.yul\":7565:7577   */\n      revert\n        /* \"#utility.yul\":7517:7579   */\n    tag_195:\n        /* \"#utility.yul\":7465:7585   */\n      pop\n      jump\t// out\n        /* \"#utility.yul\":7591:7732   */\n    tag_105:\n        /* \"#utility.yul\":7647:7652   */\n      0x00\n        /* \"#utility.yul\":7678:7684   */\n      dup2\n        /* \"#utility.yul\":7672:7685   */\n      mload\n        /* \"#utility.yul\":7663:7685   */\n      swap1\n      pop\n        /* \"#utility.yul\":7694:7726   */\n      tag_197\n        /* \"#utility.yul\":7720:7725   */\n      dup2\n        /* \"#utility.yul\":7694:7726   */\n      tag_104\n      jump\t// in\n    tag_197:\n        /* \"#utility.yul\":7591:7732   */\n      swap3\n      swap2\n      pop\n      pop\n      jump\t// out\n        /* \"#utility.yul\":7738:7881   */\n    tag_106:\n        /* \"#utility.yul\":7795:7800   */\n      0x00\n        /* \"#utility.yul\":7826:7832   */\n      dup2\n        /* \"#utility.yul\":7820:7833   */\n      mload\n        /* \"#utility.yul\":7811:7833   */\n      swap1\n      pop\n        /* \"#utility.yul\":7842:7875   */\n      tag_199\n        /* \"#utility.yul\":7869:7874   */\n      dup2\n        /* \"#utility.yul\":7842:7875   */\n      tag_79\n      jump\t// in\n    tag_199:\n        /* \"#utility.yul\":7738:7881   */\n      swap3\n      swap2\n      pop\n      pop\n      jump\t// out\n        /* \"#utility.yul\":7887:8858   */\n    tag_63:\n        /* \"#utility.yul\":7990:7996   */\n      0x00\n        /* \"#utility.yul\":7998:8004   */\n      0x00\n        /* \"#utility.yul\":8006:8012   */\n      0x00\n        /* \"#utility.yul\":8014:8020   */\n      0x00\n        /* \"#utility.yul\":8022:8028   */\n      0x00\n        /* \"#utility.yul\":8071:8074   */\n      0xa0\n        /* \"#utility.yul\":8059:8068   */\n      dup7\n        /* \"#utility.yul\":8050:8057   */\n      dup9\n        /* \"#utility.yul\":8046:8069   */\n      sub\n        /* \"#utility.yul\":8042:8075   */\n      slt\n        /* \"#utility.yul\":8039:8159   */\n      iszero\n      tag_201\n      jumpi\n        /* \"#utility.yul\":8078:8157   */\n      tag_202\n      tag_76\n      jump\t// in\n    tag_202:\n        /* \"#utility.yul\":8039:8159   */\n    tag_201:\n        /* \"#utility.yul\":8198:8199   */\n      0x00\n        /* \"#utility.yul\":8223:8286   */\n      tag_203\n        /* \"#utility.yul\":8278:8285   */\n      dup9\n        /* \"#utility.yul\":8269:8275   */\n      dup3\n        /* \"#utility.yul\":8258:8267   */\n      dup10\n        /* \"#utility.yul\":8254:8276   */\n      add\n        /* \"#utility.yul\":8223:8286   */\n      tag_103\n      jump\t// in\n    tag_203:\n        /* \"#utility.yul\":8213:8286   */\n      swap6\n      pop\n        /* \"#utility.yul\":8169:8296   */\n      pop\n        /* \"#utility.yul\":8335:8337   */\n      0x20\n        /* \"#utility.yul\":8361:8424   */\n      tag_204\n        /* \"#utility.yul\":8416:8423   */\n      dup9\n        /* \"#utility.yul\":8407:8413   */\n      dup3\n        /* \"#utility.yul\":8396:8405   */\n      dup10\n        /* \"#utility.yul\":8392:8414   */\n      add\n        /* \"#utility.yul\":8361:8424   */\n      tag_105\n      jump\t// in\n    tag_204:\n        /* \"#utility.yul\":8351:8424   */\n      swap5\n      pop\n        /* \"#utility.yul\":8306:8434   */\n      pop\n        /* \"#utility.yul\":8473:8475   */\n      0x40\n        /* \"#utility.yul\":8499:8563   */\n      tag_205\n        /* \"#utility.yul\":8555:8562   */\n      dup9\n        /* \"#utility.yul\":8546:8552   */\n      dup3\n        /* \"#utility.yul\":8535:8544   */\n      dup10\n        /* \"#utility.yul\":8531:8553   */\n      add\n        /* \"#utility.yul\":8499:8563   */\n      tag_106\n      jump\t// in\n    tag_205:\n        /* \"#utility.yul\":8489:8563   */\n      swap4\n      pop\n        /* \"#utility.yul\":8444:8573   */\n      pop\n        /* \"#utility.yul\":8612:8614   */\n      0x60\n        /* \"#utility.yul\":8638:8702   */\n      tag_206\n        /* \"#utility.yul\":8694:8701   */\n      dup9\n        /* \"#utility.yul\":8685:8691   */\n      dup3\n        /* \"#utility.yul\":8674:8683   */\n      dup10\n        /* \"#utility.yul\":8670:8692   */\n      add\n        /* \"#utility.yul\":8638:8702   */\n      tag_106\n      jump\t// in\n    tag_206:\n        /* \"#utility.yul\":8628:8702   */\n      swap3\n      pop\n        /* \"#utility.yul\":8583:8712   */\n      pop\n        /* \"#utility.yul\":8751:8754   */\n      0x80\n        /* \"#utility.yul\":8778:8841   */\n      tag_207\n        /* \"#utility.yul\":8833:8840   */\n      dup9\n        /* \"#utility.yul\":8824:8830   */\n      dup3\n        /* \"#utility.yul\":8813:8822   */\n      dup10\n        /* \"#utility.yul\":8809:8831   */\n      add\n        /* \"#utility.yul\":8778:8841   */\n      tag_103\n      jump\t// in\n    tag_207:\n        /* \"#utility.yul\":8768:8841   */\n      swap2\n      pop\n        /* \"#utility.yul\":8722:8851   */\n      pop\n        /* \"#utility.yul\":7887:8858   */\n      swap3\n      swap6\n      pop\n      swap3\n      swap6\n      swap1\n      swap4\n      pop\n      jump\t// out\n        /* \"#utility.yul\":8864:9031   */\n    tag_107:\n        /* \"#utility.yul\":9004:9023   */\n      0x4e6f7420656e6f756768206f6620455448000000000000000000000000000000\n        /* \"#utility.yul\":9000:9001   */\n      0x00\n        /* \"#utility.yul\":8992:8998   */\n      dup3\n        /* \"#utility.yul\":8988:9002   */\n      add\n        /* \"#utility.yul\":8981:9024   */\n      mstore\n        /* \"#utility.yul\":8864:9031   */\n      pop\n      jump\t// out\n        /* \"#utility.yul\":9037:9403   */\n    tag_108:\n        /* \"#utility.yul\":9179:9182   */\n      0x00\n        /* \"#utility.yul\":9200:9267   */\n      tag_210\n        /* \"#utility.yul\":9264:9266   */\n      0x11\n        /* \"#utility.yul\":9259:9262   */\n      dup4\n        /* \"#utility.yul\":9200:9267   */\n      tag_94\n      jump\t// in\n    tag_210:\n        /* \"#utility.yul\":9193:9267   */\n      swap2\n      pop\n        /* \"#utility.yul\":9276:9369   */\n      tag_211\n        /* \"#utility.yul\":9365:9368   */\n      dup3\n        /* \"#utility.yul\":9276:9369   */\n      tag_107\n      jump\t// in\n    tag_211:\n        /* \"#utility.yul\":9394:9396   */\n      0x20\n        /* \"#utility.yul\":9389:9392   */\n      dup3\n        /* \"#utility.yul\":9385:9397   */\n      add\n        /* \"#utility.yul\":9378:9397   */\n      swap1\n      pop\n        /* \"#utility.yul\":9037:9403   */\n      swap2\n      swap1\n      pop\n      jump\t// out\n        /* \"#utility.yul\":9409:9828   */\n    tag_69:\n        /* \"#utility.yul\":9575:9579   */\n      0x00\n        /* \"#utility.yul\":9613:9615   */\n      0x20\n        /* \"#utility.yul\":9602:9611   */\n      dup3\n        /* \"#utility.yul\":9598:9616   */\n      add\n        /* \"#utility.yul\":9590:9616   */\n      swap1\n      pop\n        /* \"#utility.yul\":9662:9671   */\n      dup2\n        /* \"#utility.yul\":9656:9660   */\n      dup2\n        /* \"#utility.yul\":9652:9672   */\n      sub\n        /* \"#utility.yul\":9648:9649   */\n      0x00\n        /* \"#utility.yul\":9637:9646   */\n      dup4\n        /* \"#utility.yul\":9633:9650   */\n      add\n        /* \"#utility.yul\":9626:9673   */\n      mstore\n        /* \"#utility.yul\":9690:9821   */\n      tag_213\n        /* \"#utility.yul\":9816:9820   */\n      dup2\n        /* \"#utility.yul\":9690:9821   */\n      tag_108\n      jump\t// in\n    tag_213:\n        /* \"#utility.yul\":9682:9821   */\n      swap1\n      pop\n        /* \"#utility.yul\":9409:9828   */\n      swap2\n      swap1\n      pop\n      jump\t// out\n        /* \"#utility.yul\":9834:10025   */\n    tag_71:\n        /* \"#utility.yul\":9874:9877   */\n      0x00\n        /* \"#utility.yul\":9893:9913   */\n      tag_215\n        /* \"#utility.yul\":9911:9912   */\n      dup3\n        /* \"#utility.yul\":9893:9913   */\n      tag_78\n      jump\t// in\n    tag_215:\n        /* \"#utility.yul\":9888:9913   */\n      swap2\n      pop\n        /* \"#utility.yul\":9927:9947   */\n      tag_216\n        /* \"#utility.yul\":9945:9946   */\n      dup4\n        /* \"#utility.yul\":9927:9947   */\n      tag_78\n      jump\t// in\n    tag_216:\n        /* \"#utility.yul\":9922:9947   */\n      swap3\n      pop\n        /* \"#utility.yul\":9970:9971   */\n      dup3\n        /* \"#utility.yul\":9967:9968   */\n      dup3\n        /* \"#utility.yul\":9963:9972   */\n      add\n        /* \"#utility.yul\":9956:9972   */\n      swap1\n      pop\n        /* \"#utility.yul\":9991:9994   */\n      dup1\n        /* \"#utility.yul\":9988:9989   */\n      dup3\n        /* \"#utility.yul\":9985:9995   */\n      gt\n        /* \"#utility.yul\":9982:10018   */\n      iszero\n      tag_217\n      jumpi\n        /* \"#utility.yul\":9998:10016   */\n      tag_218\n      tag_97\n      jump\t// in\n    tag_218:\n        /* \"#utility.yul\":9982:10018   */\n    tag_217:\n        /* \"#utility.yul\":9834:10025   */\n      swap3\n      swap2\n      pop\n      pop\n      jump\t// out\n\n    auxdata: 0xa2646970667358221220a12220da6642ce69aba9d08460b646c5fe1360c69857631c7b134d3de3ddc8e164736f6c634300081e0033\n}\n",
				"bytecode": {
					"linkReferences": {},
					"object": "60c060405234801561000f575f5ffd5b50604051610bcf380380610bcf833981810160405281019061003191906100fd565b3373ffffffffffffffffffffffffffffffffffffffff1660a08173ffffffffffffffffffffffffffffffffffffffff16815250508073ffffffffffffffffffffffffffffffffffffffff1660808173ffffffffffffffffffffffffffffffffffffffff168152505050610128565b5f5ffd5b5f73ffffffffffffffffffffffffffffffffffffffff82169050919050565b5f6100cc826100a3565b9050919050565b6100dc816100c2565b81146100e6575f5ffd5b50565b5f815190506100f7816100d3565b92915050565b5f602082840312156101125761011161009f565b5b5f61011f848285016100e9565b91505092915050565b60805160a051610a786101575f395f818161021301526102a101525f8181610307015261032d0152610a785ff3fe60806040526004361061006f575f3560e01c806398d5fdca1161004d57806398d5fdca146100ef578063b60d428814610119578063dc0d3dff14610123578063deaf2cf01461015f5761006f565b8063047abed7146100735780633ccfd60b146100af578063741bef1a146100c5575b5f5ffd5b34801561007e575f5ffd5b5061009960048036038101906100949190610563565b61019b565b6040516100a6919061059d565b60405180910390f35b3480156100ba575f5ffd5b506100c3610211565b005b3480156100d0575f5ffd5b506100d9610305565b6040516100e69190610630565b60405180910390f35b3480156100fa575f5ffd5b50610103610329565b6040516101109190610661565b60405180910390f35b6101216103c5565b005b34801561012e575f5ffd5b5061014960048036038101906101449190610563565b6104dd565b604051610156919061069a565b60405180910390f35b34801561016a575f5ffd5b50610185600480360381019061018091906106dd565b610518565b604051610192919061059d565b60405180910390f35b5f5f6101a5610329565b90505f81136101e9576040517f08c379a00000000000000000000000000000000000000000000000000000000081526004016101e090610762565b60405180910390fd5b5f8190506305f5e10084826101fe91906107ad565b610208919061081b565b92505050919050565b7f000000000000000000000000000000000000000000000000000000000000000073ffffffffffffffffffffffffffffffffffffffff163373ffffffffffffffffffffffffffffffffffffffff161461029f576040517f08c379a000000000000000000000000000000000000000000000000000000000815260040161029690610895565b60405180910390fd5b7f000000000000000000000000000000000000000000000000000000000000000073ffffffffffffffffffffffffffffffffffffffff166108fc4790811502906040515f60405180830381858888f19350505050158015610302573d5f5f3e3d5ffd5b50565b7f000000000000000000000000000000000000000000000000000000000000000081565b5f5f7f000000000000000000000000000000000000000000000000000000000000000073ffffffffffffffffffffffffffffffffffffffff1663feaf968c6040518163ffffffff1660e01b815260040160a060405180830381865afa158015610394573d5f5f3e3d5ffd5b505050506040513d601f19601f820116820180604052508101906103b89190610930565b5050509150508091505090565b5f6103cf3461019b565b9050670de0b6b3a764000060056103e691906107ad565b811015610428576040517f08c379a000000000000000000000000000000000000000000000000000000000815260040161041f906109f1565b60405180910390fd5b345f5f3373ffffffffffffffffffffffffffffffffffffffff1673ffffffffffffffffffffffffffffffffffffffff1681526020019081526020015f205f8282546104739190610a0f565b92505081905550600133908060018154018082558091505060019003905f5260205f20015f9091909190916101000a81548173ffffffffffffffffffffffffffffffffffffffff021916908373ffffffffffffffffffffffffffffffffffffffff16021790555050565b600181815481106104ec575f80fd5b905f5260205f20015f915054906101000a900473ffffffffffffffffffffffffffffffffffffffff1681565b5f602052805f5260405f205f915090505481565b5f5ffd5b5f819050919050565b61054281610530565b811461054c575f5ffd5b50565b5f8135905061055d81610539565b92915050565b5f602082840312156105785761057761052c565b5b5f6105858482850161054f565b91505092915050565b61059781610530565b82525050565b5f6020820190506105b05f83018461058e565b92915050565b5f73ffffffffffffffffffffffffffffffffffffffff82169050919050565b5f819050919050565b5f6105f86105f36105ee846105b6565b6105d5565b6105b6565b9050919050565b5f610609826105de565b9050919050565b5f61061a826105ff565b9050919050565b61062a81610610565b82525050565b5f6020820190506106435f830184610621565b92915050565b5f819050919050565b61065b81610649565b82525050565b5f6020820190506106745f830184610652565b92915050565b5f610684826105b6565b9050919050565b6106948161067a565b82525050565b5f6020820190506106ad5f83018461068b565b92915050565b6106bc8161067a565b81146106c6575f5ffd5b50565b5f813590506106d7816106b3565b92915050565b5f602082840312156106f2576106f161052c565b5b5f6106ff848285016106c9565b91505092915050565b5f82825260208201905092915050565b7f496e76616c6964205072696365000000000000000000000000000000000000005f82015250565b5f61074c600d83610708565b915061075782610718565b602082019050919050565b5f6020820190508181035f83015261077981610740565b9050919050565b7f4e487b71000000000000000000000000000000000000000000000000000000005f52601160045260245ffd5b5f6107b782610530565b91506107c283610530565b92508282026107d081610530565b915082820484148315176107e7576107e6610780565b5b5092915050565b7f4e487b71000000000000000000000000000000000000000000000000000000005f52601260045260245ffd5b5f61082582610530565b915061083083610530565b9250826108405761083f6107ee565b5b828204905092915050565b7f596f7520646f6e2774206f776e207468697320636f6e747261637400000000005f82015250565b5f61087f601b83610708565b915061088a8261084b565b602082019050919050565b5f6020820190508181035f8301526108ac81610873565b9050919050565b5f69ffffffffffffffffffff82169050919050565b6108d1816108b3565b81146108db575f5ffd5b50565b5f815190506108ec816108c8565b92915050565b6108fb81610649565b8114610905575f5ffd5b50565b5f81519050610916816108f2565b92915050565b5f8151905061092a81610539565b92915050565b5f5f5f5f5f60a086880312156109495761094861052c565b5b5f610956888289016108de565b955050602061096788828901610908565b94505060406109788882890161091c565b93505060606109898882890161091c565b925050608061099a888289016108de565b9150509295509295909350565b7f4e6f7420656e6f756768206f66204554480000000000000000000000000000005f82015250565b5f6109db601183610708565b91506109e6826109a7565b602082019050919050565b5f6020820190508181035f830152610a08816109cf565b9050919050565b5f610a1982610530565b9150610a2483610530565b9250828201905080821115610a3c57610a3b610780565b5b9291505056fea2646970667358221220a12220da6642ce69aba9d08460b646c5fe1360c69857631c7b134d3de3ddc8e164736f6c634300081e0033",
					"opcodes": "PUSH1 0xC0 PUSH1 0x40 MSTORE CALLVALUE DUP1 ISZERO PUSH2 0xF JUMPI PUSH0 PUSH0 REVERT JUMPDEST POP PUSH1 0x40 MLOAD PUSH2 0xBCF CODESIZE SUB DUP1 PUSH2 0xBCF DUP4 CODECOPY DUP2 DUP2 ADD PUSH1 0x40 MSTORE DUP2 ADD SWAP1 PUSH2 0x31 SWAP2 SWAP1 PUSH2 0xFD JUMP JUMPDEST CALLER PUSH20 0xFFFFFFFFFFFFFFFFFFFFFFFFFFFFFFFFFFFFFFFF AND PUSH1 0xA0 DUP2 PUSH20 0xFFFFFFFFFFFFFFFFFFFFFFFFFFFFFFFFFFFFFFFF AND DUP2 MSTORE POP POP DUP1 PUSH20 0xFFFFFFFFFFFFFFFFFFFFFFFFFFFFFFFFFFFFFFFF AND PUSH1 0x80 DUP2 PUSH20 0xFFFFFFFFFFFFFFFFFFFFFFFFFFFFFFFFFFFFFFFF AND DUP2 MSTORE POP POP POP PUSH2 0x128 JUMP JUMPDEST PUSH0 PUSH0 REVERT JUMPDEST PUSH0 PUSH20 0xFFFFFFFFFFFFFFFFFFFFFFFFFFFFFFFFFFFFFFFF DUP3 AND SWAP1 POP SWAP2 SWAP1 POP JUMP JUMPDEST PUSH0 PUSH2 0xCC DUP3 PUSH2 0xA3 JUMP JUMPDEST SWAP1 POP SWAP2 SWAP1 POP JUMP JUMPDEST PUSH2 0xDC DUP2 PUSH2 0xC2 JUMP JUMPDEST DUP2 EQ PUSH2 0xE6 JUMPI PUSH0 PUSH0 REVERT JUMPDEST POP JUMP JUMPDEST PUSH0 DUP2 MLOAD SWAP1 POP PUSH2 0xF7 DUP2 PUSH2 0xD3 JUMP JUMPDEST SWAP3 SWAP2 POP POP JUMP JUMPDEST PUSH0 PUSH1 0x20 DUP3 DUP5 SUB SLT ISZERO PUSH2 0x112 JUMPI PUSH2 0x111 PUSH2 0x9F JUMP JUMPDEST JUMPDEST PUSH0 PUSH2 0x11F DUP5 DUP3 DUP6 ADD PUSH2 0xE9 JUMP JUMPDEST SWAP2 POP POP SWAP3 SWAP2 POP POP JUMP JUMPDEST PUSH1 0x80 MLOAD PUSH1 0xA0 MLOAD PUSH2 0xA78 PUSH2 0x157 PUSH0 CODECOPY PUSH0 DUP2 DUP2 PUSH2 0x213 ADD MSTORE PUSH2 0x2A1 ADD MSTORE PUSH0 DUP2 DUP2 PUSH2 0x307 ADD MSTORE PUSH2 0x32D ADD MSTORE PUSH2 0xA78 PUSH0 RETURN INVALID PUSH1 0x80 PUSH1 0x40 MSTORE PUSH1 0x4 CALLDATASIZE LT PUSH2 0x6F JUMPI PUSH0 CALLDATALOAD PUSH1 0xE0 SHR DUP1 PUSH4 0x98D5FDCA GT PUSH2 0x4D JUMPI DUP1 PUSH4 0x98D5FDCA EQ PUSH2 0xEF JUMPI DUP1 PUSH4 0xB60D4288 EQ PUSH2 0x119 JUMPI DUP1 PUSH4 0xDC0D3DFF EQ PUSH2 0x123 JUMPI DUP1 PUSH4 0xDEAF2CF0 EQ PUSH2 0x15F JUMPI PUSH2 0x6F JUMP JUMPDEST DUP1 PUSH4 0x47ABED7 EQ PUSH2 0x73 JUMPI DUP1 PUSH4 0x3CCFD60B EQ PUSH2 0xAF JUMPI DUP1 PUSH4 0x741BEF1A EQ PUSH2 0xC5 JUMPI JUMPDEST PUSH0 PUSH0 REVERT JUMPDEST CALLVALUE DUP1 ISZERO PUSH2 0x7E JUMPI PUSH0 PUSH0 REVERT JUMPDEST POP PUSH2 0x99 PUSH1 0x4 DUP1 CALLDATASIZE SUB DUP2 ADD SWAP1 PUSH2 0x94 SWAP2 SWAP1 PUSH2 0x563 JUMP JUMPDEST PUSH2 0x19B JUMP JUMPDEST PUSH1 0x40 MLOAD PUSH2 0xA6 SWAP2 SWAP1 PUSH2 0x59D JUMP JUMPDEST PUSH1 0x40 MLOAD DUP1 SWAP2 SUB SWAP1 RETURN JUMPDEST CALLVALUE DUP1 ISZERO PUSH2 0xBA JUMPI PUSH0 PUSH0 REVERT JUMPDEST POP PUSH2 0xC3 PUSH2 0x211 JUMP JUMPDEST STOP JUMPDEST CALLVALUE DUP1 ISZERO PUSH2 0xD0 JUMPI PUSH0 PUSH0 REVERT JUMPDEST POP PUSH2 0xD9 PUSH2 0x305 JUMP JUMPDEST PUSH1 0x40 MLOAD PUSH2 0xE6 SWAP2 SWAP1 PUSH2 0x630 JUMP JUMPDEST PUSH1 0x40 MLOAD DUP1 SWAP2 SUB SWAP1 RETURN JUMPDEST CALLVALUE DUP1 ISZERO PUSH2 0xFA JUMPI PUSH0 PUSH0 REVERT JUMPDEST POP PUSH2 0x103 PUSH2 0x329 JUMP JUMPDEST PUSH1 0x40 MLOAD PUSH2 0x110 SWAP2 SWAP1 PUSH2 0x661 JUMP JUMPDEST PUSH1 0x40 MLOAD DUP1 SWAP2 SUB SWAP1 RETURN JUMPDEST PUSH2 0x121 PUSH2 0x3C5 JUMP JUMPDEST STOP JUMPDEST CALLVALUE DUP1 ISZERO PUSH2 0x12E JUMPI PUSH0 PUSH0 REVERT JUMPDEST POP PUSH2 0x149 PUSH1 0x4 DUP1 CALLDATASIZE SUB DUP2 ADD SWAP1 PUSH2 0x144 SWAP2 SWAP1 PUSH2 0x563 JUMP JUMPDEST PUSH2 0x4DD JUMP JUMPDEST PUSH1 0x40 MLOAD PUSH2 0x156 SWAP2 SWAP1 PUSH2 0x69A JUMP JUMPDEST PUSH1 0x40 MLOAD DUP1 SWAP2 SUB SWAP1 RETURN JUMPDEST CALLVALUE DUP1 ISZERO PUSH2 0x16A JUMPI PUSH0 PUSH0 REVERT JUMPDEST POP PUSH2 0x185 PUSH1 0x4 DUP1 CALLDATASIZE SUB DUP2 ADD SWAP1 PUSH2 0x180 SWAP2 SWAP1 PUSH2 0x6DD JUMP JUMPDEST PUSH2 0x518 JUMP JUMPDEST PUSH1 0x40 MLOAD PUSH2 0x192 SWAP2 SWAP1 PUSH2 0x59D JUMP JUMPDEST PUSH1 0x40 MLOAD DUP1 SWAP2 SUB SWAP1 RETURN JUMPDEST PUSH0 PUSH0 PUSH2 0x1A5 PUSH2 0x329 JUMP JUMPDEST SWAP1 POP PUSH0 DUP2 SGT PUSH2 0x1E9 JUMPI PUSH1 0x40 MLOAD PUSH32 0x8C379A000000000000000000000000000000000000000000000000000000000 DUP2 MSTORE PUSH1 0x4 ADD PUSH2 0x1E0 SWAP1 PUSH2 0x762 JUMP JUMPDEST PUSH1 0x40 MLOAD DUP1 SWAP2 SUB SWAP1 REVERT JUMPDEST PUSH0 DUP2 SWAP1 POP PUSH4 0x5F5E100 DUP5 DUP3 PUSH2 0x1FE SWAP2 SWAP1 PUSH2 0x7AD JUMP JUMPDEST PUSH2 0x208 SWAP2 SWAP1 PUSH2 0x81B JUMP JUMPDEST SWAP3 POP POP POP SWAP2 SWAP1 POP JUMP JUMPDEST PUSH32 0x0 PUSH20 0xFFFFFFFFFFFFFFFFFFFFFFFFFFFFFFFFFFFFFFFF AND CALLER PUSH20 0xFFFFFFFFFFFFFFFFFFFFFFFFFFFFFFFFFFFFFFFF AND EQ PUSH2 0x29F JUMPI PUSH1 0x40 MLOAD PUSH32 0x8C379A000000000000000000000000000000000000000000000000000000000 DUP2 MSTORE PUSH1 0x4 ADD PUSH2 0x296 SWAP1 PUSH2 0x895 JUMP JUMPDEST PUSH1 0x40 MLOAD DUP1 SWAP2 SUB SWAP1 REVERT JUMPDEST PUSH32 0x0 PUSH20 0xFFFFFFFFFFFFFFFFFFFFFFFFFFFFFFFFFFFFFFFF AND PUSH2 0x8FC SELFBALANCE SWAP1 DUP2 ISZERO MUL SWAP1 PUSH1 0x40 MLOAD PUSH0 PUSH1 0x40 MLOAD DUP1 DUP4 SUB DUP2 DUP6 DUP9 DUP9 CALL SWAP4 POP POP POP POP ISZERO DUP1 ISZERO PUSH2 0x302 JUMPI RETURNDATASIZE PUSH0 PUSH0 RETURNDATACOPY RETURNDATASIZE PUSH0 REVERT JUMPDEST POP JUMP JUMPDEST PUSH32 0x0 DUP2 JUMP JUMPDEST PUSH0 PUSH0 PUSH32 0x0 PUSH20 0xFFFFFFFFFFFFFFFFFFFFFFFFFFFFFFFFFFFFFFFF AND PUSH4 0xFEAF968C PUSH1 0x40 MLOAD DUP2 PUSH4 0xFFFFFFFF AND PUSH1 0xE0 SHL DUP2 MSTORE PUSH1 0x4 ADD PUSH1 0xA0 PUSH1 0x40 MLOAD DUP1 DUP4 SUB DUP2 DUP7 GAS STATICCALL ISZERO DUP1 ISZERO PUSH2 0x394 JUMPI RETURNDATASIZE PUSH0 PUSH0 RETURNDATACOPY RETURNDATASIZE PUSH0 REVERT JUMPDEST POP POP POP POP PUSH1 0x40 MLOAD RETURNDATASIZE PUSH1 0x1F NOT PUSH1 0x1F DUP3 ADD AND DUP3 ADD DUP1 PUSH1 0x40 MSTORE POP DUP2 ADD SWAP1 PUSH2 0x3B8 SWAP2 SWAP1 PUSH2 0x930 JUMP JUMPDEST POP POP POP SWAP2 POP POP DUP1 SWAP2 POP POP SWAP1 JUMP JUMPDEST PUSH0 PUSH2 0x3CF CALLVALUE PUSH2 0x19B JUMP JUMPDEST SWAP1 POP PUSH8 0xDE0B6B3A7640000 PUSH1 0x5 PUSH2 0x3E6 SWAP2 SWAP1 PUSH2 0x7AD JUMP JUMPDEST DUP2 LT ISZERO PUSH2 0x428 JUMPI PUSH1 0x40 MLOAD PUSH32 0x8C379A000000000000000000000000000000000000000000000000000000000 DUP2 MSTORE PUSH1 0x4 ADD PUSH2 0x41F SWAP1 PUSH2 0x9F1 JUMP JUMPDEST PUSH1 0x40 MLOAD DUP1 SWAP2 SUB SWAP1 REVERT JUMPDEST CALLVALUE PUSH0 PUSH0 CALLER PUSH20 0xFFFFFFFFFFFFFFFFFFFFFFFFFFFFFFFFFFFFFFFF AND PUSH20 0xFFFFFFFFFFFFFFFFFFFFFFFFFFFFFFFFFFFFFFFF AND DUP2 MSTORE PUSH1 0x20 ADD SWAP1 DUP2 MSTORE PUSH1 0x20 ADD PUSH0 KECCAK256 PUSH0 DUP3 DUP3 SLOAD PUSH2 0x473 SWAP2 SWAP1 PUSH2 0xA0F JUMP JUMPDEST SWAP3 POP POP DUP2 SWAP1 SSTORE POP PUSH1 0x1 CALLER SWAP1 DUP1 PUSH1 0x1 DUP2 SLOAD ADD DUP1 DUP3 SSTORE DUP1 SWAP2 POP POP PUSH1 0x1 SWAP1 SUB SWAP1 PUSH0 MSTORE PUSH1 0x20 PUSH0 KECCAK256 ADD PUSH0 SWAP1 SWAP2 SWAP1 SWAP2 SWAP1 SWAP2 PUSH2 0x100 EXP DUP2 SLOAD DUP2 PUSH20 0xFFFFFFFFFFFFFFFFFFFFFFFFFFFFFFFFFFFFFFFF MUL NOT AND SWAP1 DUP4 PUSH20 0xFFFFFFFFFFFFFFFFFFFFFFFFFFFFFFFFFFFFFFFF AND MUL OR SWAP1 SSTORE POP POP JUMP JUMPDEST PUSH1 0x1 DUP2 DUP2 SLOAD DUP2 LT PUSH2 0x4EC JUMPI PUSH0 DUP1 REVERT JUMPDEST SWAP1 PUSH0 MSTORE PUSH1 0x20 PUSH0 KECCAK256 ADD PUSH0 SWAP2 POP SLOAD SWAP1 PUSH2 0x100 EXP SWAP1 DIV PUSH20 0xFFFFFFFFFFFFFFFFFFFFFFFFFFFFFFFFFFFFFFFF AND DUP2 JUMP JUMPDEST PUSH0 PUSH1 0x20 MSTORE DUP1 PUSH0 MSTORE PUSH1 0x40 PUSH0 KECCAK256 PUSH0 SWAP2 POP SWAP1 POP SLOAD DUP2 JUMP JUMPDEST PUSH0 PUSH0 REVERT JUMPDEST PUSH0 DUP2 SWAP1 POP SWAP2 SWAP1 POP JUMP JUMPDEST PUSH2 0x542 DUP2 PUSH2 0x530 JUMP JUMPDEST DUP2 EQ PUSH2 0x54C JUMPI PUSH0 PUSH0 REVERT JUMPDEST POP JUMP JUMPDEST PUSH0 DUP2 CALLDATALOAD SWAP1 POP PUSH2 0x55D DUP2 PUSH2 0x539 JUMP JUMPDEST SWAP3 SWAP2 POP POP JUMP JUMPDEST PUSH0 PUSH1 0x20 DUP3 DUP5 SUB SLT ISZERO PUSH2 0x578 JUMPI PUSH2 0x577 PUSH2 0x52C JUMP JUMPDEST JUMPDEST PUSH0 PUSH2 0x585 DUP5 DUP3 DUP6 ADD PUSH2 0x54F JUMP JUMPDEST SWAP2 POP POP SWAP3 SWAP2 POP POP JUMP JUMPDEST PUSH2 0x597 DUP2 PUSH2 0x530 JUMP JUMPDEST DUP3 MSTORE POP POP JUMP JUMPDEST PUSH0 PUSH1 0x20 DUP3 ADD SWAP1 POP PUSH2 0x5B0 PUSH0 DUP4 ADD DUP5 PUSH2 0x58E JUMP JUMPDEST SWAP3 SWAP2 POP POP JUMP JUMPDEST PUSH0 PUSH20 0xFFFFFFFFFFFFFFFFFFFFFFFFFFFFFFFFFFFFFFFF DUP3 AND SWAP1 POP SWAP2 SWAP1 POP JUMP JUMPDEST PUSH0 DUP2 SWAP1 POP SWAP2 SWAP1 POP JUMP JUMPDEST PUSH0 PUSH2 0x5F8 PUSH2 0x5F3 PUSH2 0x5EE DUP5 PUSH2 0x5B6 JUMP JUMPDEST PUSH2 0x5D5 JUMP JUMPDEST PUSH2 0x5B6 JUMP JUMPDEST SWAP1 POP SWAP2 SWAP1 POP JUMP JUMPDEST PUSH0 PUSH2 0x609 DUP3 PUSH2 0x5DE JUMP JUMPDEST SWAP1 POP SWAP2 SWAP1 POP JUMP JUMPDEST PUSH0 PUSH2 0x61A DUP3 PUSH2 0x5FF JUMP JUMPDEST SWAP1 POP SWAP2 SWAP1 POP JUMP JUMPDEST PUSH2 0x62A DUP2 PUSH2 0x610 JUMP JUMPDEST DUP3 MSTORE POP POP JUMP JUMPDEST PUSH0 PUSH1 0x20 DUP3 ADD SWAP1 POP PUSH2 0x643 PUSH0 DUP4 ADD DUP5 PUSH2 0x621 JUMP JUMPDEST SWAP3 SWAP2 POP POP JUMP JUMPDEST PUSH0 DUP2 SWAP1 POP SWAP2 SWAP1 POP JUMP JUMPDEST PUSH2 0x65B DUP2 PUSH2 0x649 JUMP JUMPDEST DUP3 MSTORE POP POP JUMP JUMPDEST PUSH0 PUSH1 0x20 DUP3 ADD SWAP1 POP PUSH2 0x674 PUSH0 DUP4 ADD DUP5 PUSH2 0x652 JUMP JUMPDEST SWAP3 SWAP2 POP POP JUMP JUMPDEST PUSH0 PUSH2 0x684 DUP3 PUSH2 0x5B6 JUMP JUMPDEST SWAP1 POP SWAP2 SWAP1 POP JUMP JUMPDEST PUSH2 0x694 DUP2 PUSH2 0x67A JUMP JUMPDEST DUP3 MSTORE POP POP JUMP JUMPDEST PUSH0 PUSH1 0x20 DUP3 ADD SWAP1 POP PUSH2 0x6AD PUSH0 DUP4 ADD DUP5 PUSH2 0x68B JUMP JUMPDEST SWAP3 SWAP2 POP POP JUMP JUMPDEST PUSH2 0x6BC DUP2 PUSH2 0x67A JUMP JUMPDEST DUP2 EQ PUSH2 0x6C6 JUMPI PUSH0 PUSH0 REVERT JUMPDEST POP JUMP JUMPDEST PUSH0 DUP2 CALLDATALOAD SWAP1 POP PUSH2 0x6D7 DUP2 PUSH2 0x6B3 JUMP JUMPDEST SWAP3 SWAP2 POP POP JUMP JUMPDEST PUSH0 PUSH1 0x20 DUP3 DUP5 SUB SLT ISZERO PUSH2 0x6F2 JUMPI PUSH2 0x6F1 PUSH2 0x52C JUMP JUMPDEST JUMPDEST PUSH0 PUSH2 0x6FF DUP5 DUP3 DUP6 ADD PUSH2 0x6C9 JUMP JUMPDEST SWAP2 POP POP SWAP3 SWAP2 POP POP JUMP JUMPDEST PUSH0 DUP3 DUP3 MSTORE PUSH1 0x20 DUP3 ADD SWAP1 POP SWAP3 SWAP2 POP POP JUMP JUMPDEST PUSH32 0x496E76616C696420507269636500000000000000000000000000000000000000 PUSH0 DUP3 ADD MSTORE POP JUMP JUMPDEST PUSH0 PUSH2 0x74C PUSH1 0xD DUP4 PUSH2 0x708 JUMP JUMPDEST SWAP2 POP PUSH2 0x757 DUP3 PUSH2 0x718 JUMP JUMPDEST PUSH1 0x20 DUP3 ADD SWAP1 POP SWAP2 SWAP1 POP JUMP JUMPDEST PUSH0 PUSH1 0x20 DUP3 ADD SWAP1 POP DUP2 DUP2 SUB PUSH0 DUP4 ADD MSTORE PUSH2 0x779 DUP2 PUSH2 0x740 JUMP JUMPDEST SWAP1 POP SWAP2 SWAP1 POP JUMP JUMPDEST PUSH32 0x4E487B7100000000000000000000000000000000000000000000000000000000 PUSH0 MSTORE PUSH1 0x11 PUSH1 0x4 MSTORE PUSH1 0x24 PUSH0 REVERT JUMPDEST PUSH0 PUSH2 0x7B7 DUP3 PUSH2 0x530 JUMP JUMPDEST SWAP2 POP PUSH2 0x7C2 DUP4 PUSH2 0x530 JUMP JUMPDEST SWAP3 POP DUP3 DUP3 MUL PUSH2 0x7D0 DUP2 PUSH2 0x530 JUMP JUMPDEST SWAP2 POP DUP3 DUP3 DIV DUP5 EQ DUP4 ISZERO OR PUSH2 0x7E7 JUMPI PUSH2 0x7E6 PUSH2 0x780 JUMP JUMPDEST JUMPDEST POP SWAP3 SWAP2 POP POP JUMP JUMPDEST PUSH32 0x4E487B7100000000000000000000000000000000000000000000000000000000 PUSH0 MSTORE PUSH1 0x12 PUSH1 0x4 MSTORE PUSH1 0x24 PUSH0 REVERT JUMPDEST PUSH0 PUSH2 0x825 DUP3 PUSH2 0x530 JUMP JUMPDEST SWAP2 POP PUSH2 0x830 DUP4 PUSH2 0x530 JUMP JUMPDEST SWAP3 POP DUP3 PUSH2 0x840 JUMPI PUSH2 0x83F PUSH2 0x7EE JUMP JUMPDEST JUMPDEST DUP3 DUP3 DIV SWAP1 POP SWAP3 SWAP2 POP POP JUMP JUMPDEST PUSH32 0x596F7520646F6E2774206F776E207468697320636F6E74726163740000000000 PUSH0 DUP3 ADD MSTORE POP JUMP JUMPDEST PUSH0 PUSH2 0x87F PUSH1 0x1B DUP4 PUSH2 0x708 JUMP JUMPDEST SWAP2 POP PUSH2 0x88A DUP3 PUSH2 0x84B JUMP JUMPDEST PUSH1 0x20 DUP3 ADD SWAP1 POP SWAP2 SWAP1 POP JUMP JUMPDEST PUSH0 PUSH1 0x20 DUP3 ADD SWAP1 POP DUP2 DUP2 SUB PUSH0 DUP4 ADD MSTORE PUSH2 0x8AC DUP2 PUSH2 0x873 JUMP JUMPDEST SWAP1 POP SWAP2 SWAP1 POP JUMP JUMPDEST PUSH0 PUSH10 0xFFFFFFFFFFFFFFFFFFFF DUP3 AND SWAP1 POP SWAP2 SWAP1 POP JUMP JUMPDEST PUSH2 0x8D1 DUP2 PUSH2 0x8B3 JUMP JUMPDEST DUP2 EQ PUSH2 0x8DB JUMPI PUSH0 PUSH0 REVERT JUMPDEST POP JUMP JUMPDEST PUSH0 DUP2 MLOAD SWAP1 POP PUSH2 0x8EC DUP2 PUSH2 0x8C8 JUMP JUMPDEST SWAP3 SWAP2 POP POP JUMP JUMPDEST PUSH2 0x8FB DUP2 PUSH2 0x649 JUMP JUMPDEST DUP2 EQ PUSH2 0x905 JUMPI PUSH0 PUSH0 REVERT JUMPDEST POP JUMP JUMPDEST PUSH0 DUP2 MLOAD SWAP1 POP PUSH2 0x916 DUP2 PUSH2 0x8F2 JUMP JUMPDEST SWAP3 SWAP2 POP POP JUMP JUMPDEST PUSH0 DUP2 MLOAD SWAP1 POP PUSH2 0x92A DUP2 PUSH2 0x539 JUMP JUMPDEST SWAP3 SWAP2 POP POP JUMP JUMPDEST PUSH0 PUSH0 PUSH0 PUSH0 PUSH0 PUSH1 0xA0 DUP7 DUP9 SUB SLT ISZERO PUSH2 0x949 JUMPI PUSH2 0x948 PUSH2 0x52C JUMP JUMPDEST JUMPDEST PUSH0 PUSH2 0x956 DUP9 DUP3 DUP10 ADD PUSH2 0x8DE JUMP JUMPDEST SWAP6 POP POP PUSH1 0x20 PUSH2 0x967 DUP9 DUP3 DUP10 ADD PUSH2 0x908 JUMP JUMPDEST SWAP5 POP POP PUSH1 0x40 PUSH2 0x978 DUP9 DUP3 DUP10 ADD PUSH2 0x91C JUMP JUMPDEST SWAP4 POP POP PUSH1 0x60 PUSH2 0x989 DUP9 DUP3 DUP10 ADD PUSH2 0x91C JUMP JUMPDEST SWAP3 POP POP PUSH1 0x80 PUSH2 0x99A DUP9 DUP3 DUP10 ADD PUSH2 0x8DE JUMP JUMPDEST SWAP2 POP POP SWAP3 SWAP6 POP SWAP3 SWAP6 SWAP1 SWAP4 POP JUMP JUMPDEST PUSH32 0x4E6F7420656E6F756768206F6620455448000000000000000000000000000000 PUSH0 DUP3 ADD MSTORE POP JUMP JUMPDEST PUSH0 PUSH2 0x9DB PUSH1 0x11 DUP4 PUSH2 0x708 JUMP JUMPDEST SWAP2 POP PUSH2 0x9E6 DUP3 PUSH2 0x9A7 JUMP JUMPDEST PUSH1 0x20 DUP3 ADD SWAP1 POP SWAP2 SWAP1 POP JUMP JUMPDEST PUSH0 PUSH1 0x20 DUP3 ADD SWAP1 POP DUP2 DUP2 SUB PUSH0 DUP4 ADD MSTORE PUSH2 0xA08 DUP2 PUSH2 0x9CF JUMP JUMPDEST SWAP1 POP SWAP2 SWAP1 POP JUMP JUMPDEST PUSH0 PUSH2 0xA19 DUP3 PUSH2 0x530 JUMP JUMPDEST SWAP2 POP PUSH2 0xA24 DUP4 PUSH2 0x530 JUMP JUMPDEST SWAP3 POP DUP3 DUP3 ADD SWAP1 POP DUP1 DUP3 GT ISZERO PUSH2 0xA3C JUMPI PUSH2 0xA3B PUSH2 0x780 JUMP JUMPDEST JUMPDEST SWAP3 SWAP2 POP POP JUMP INVALID LOG2 PUSH5 0x6970667358 0x22 SLT KECCAK256 LOG1 0x22 KECCAK256 0xDA PUSH7 0x42CE69ABA9D084 PUSH1 0xB6 CHAINID 0xC5 INVALID SGT PUSH1 0xC6 SWAP9 JUMPI PUSH4 0x1C7B134D RETURNDATASIZE CALLF 0xDDC8 RJUMPI 0x6473 PUSH16 0x6C634300081E00330000000000000000 "
				},
				"gasEstimates": {
					"creation": {
						"codeDepositCost": "536000",
						"executionCost": "infinite",
						"totalCost": "infinite"
					},
					"external": {
						"amountFunded(address)": "2867",
						"fund()": "infinite",
						"funders(uint256)": "4988",
						"getConversion(uint256)": "infinite",
						"getPrice()": "infinite",
						"priceFeed()": "infinite",
						"withdraw()": "infinite"
					}
				},
				"methodIdentifiers": {
					"amountFunded(address)": "deaf2cf0",
					"fund()": "b60d4288",
					"funders(uint256)": "dc0d3dff",
					"getConversion(uint256)": "047abed7",
					"getPrice()": "98d5fdca",
					"priceFeed()": "741bef1a",
					"withdraw()": "3ccfd60b"
				}
			},
			"storageLayout": {
				"storage": [
					{
						"astId": 78,
						"contract": "FundMe.sol:FundMe",
						"label": "amountFunded",
						"offset": 0,
						"slot": "0",
						"type": "t_mapping(t_address,t_uint256)"
					},
					{
						"astId": 81,
						"contract": "FundMe.sol:FundMe",
						"label": "funders",
						"offset": 0,
						"slot": "1",
						"type": "t_array(t_address)dyn_storage"
					}
				],
				"types": {
					"t_address": {
						"encoding": "inplace",
						"label": "address",
						"numberOfBytes": "20"
					},
					"t_array(t_address)dyn_storage": {
						"base": "t_address",
						"encoding": "dynamic_array",
						"label": "address[]",
						"numberOfBytes": "32"
					},
					"t_mapping(t_address,t_uint256)": {
						"encoding": "mapping",
						"key": "t_address",
						"label": "mapping(address => uint256)",
						"numberOfBytes": "32",
						"value": "t_uint256"
					},
					"t_uint256": {
						"encoding": "inplace",
						"label": "uint256",
						"numberOfBytes": "32"
					}
				}
			},
			"userdoc": {
				"kind": "user",
				"methods": {},
				"version": 1
			}
		}
	}
}